{
	"faucet.sol": {
		"faucet": {
			"abi": [
				{
					"inputs": [],
					"stateMutability": "payable",
					"type": "constructor"
				},
				{
					"inputs": [],
					"name": "amountAllowed",
					"outputs": [
						{
							"internalType": "uint256",
							"name": "",
							"type": "uint256"
						}
					],
					"stateMutability": "view",
					"type": "function"
				},
				{
					"inputs": [
						{
							"internalType": "address",
							"name": "tokenOwner",
							"type": "address"
						}
					],
					"name": "balanceOf",
					"outputs": [
						{
							"internalType": "uint256",
							"name": "",
							"type": "uint256"
						}
					],
					"stateMutability": "view",
					"type": "function"
				},
				{
					"inputs": [
						{
							"internalType": "address",
							"name": "",
							"type": "address"
						}
					],
					"name": "lockTime",
					"outputs": [
						{
							"internalType": "uint256",
							"name": "",
							"type": "uint256"
						}
					],
					"stateMutability": "view",
					"type": "function"
				},
				{
					"inputs": [],
					"name": "owner",
					"outputs": [
						{
							"internalType": "address",
							"name": "",
							"type": "address"
						}
					],
					"stateMutability": "view",
					"type": "function"
				},
				{
					"inputs": [
						{
							"internalType": "address payable",
							"name": "_requestor",
							"type": "address"
						}
					],
					"name": "requestTokens",
					"outputs": [],
					"stateMutability": "payable",
					"type": "function"
				}
			],
			"devdoc": {
				"kind": "dev",
				"methods": {},
				"version": 1
			},
			"evm": {
				"assembly": "    /* \"faucet.sol\":57:1317  contract faucet {... */\n  mstore(0x40, 0x80)\n    /* \"faucet.sol\":212:225  10*(10 ** 18) */\n  0x8ac7230489e80000\n    /* \"faucet.sol\":184:225  uint public amountAllowed = 10*(10 ** 18) */\n  0x01\n  sstore\n    /* \"faucet.sol\":534:544  msg.sender */\n  caller\n    /* \"faucet.sol\":526:531  owner */\n  0x00\n  dup1\n    /* \"faucet.sol\":526:544  owner = msg.sender */\n  0x0100\n  exp\n  dup2\n  sload\n  dup2\n  0xffffffffffffffffffffffffffffffffffffffff\n  mul\n  not\n  and\n  swap1\n  dup4\n  0xffffffffffffffffffffffffffffffffffffffff\n  and\n  mul\n  or\n  swap1\n  sstore\n  pop\n    /* \"faucet.sol\":57:1317  contract faucet {... */\n  dataSize(sub_0)\n  dup1\n  dataOffset(sub_0)\n  0x00\n  codecopy\n  0x00\n  return\nstop\n\nsub_0: assembly {\n        /* \"faucet.sol\":57:1317  contract faucet {... */\n      mstore(0x40, 0x80)\n      jumpi(tag_1, lt(calldatasize, 0x04))\n      shr(0xe0, calldataload(0x00))\n      dup1\n      0x580f3904\n      eq\n      tag_2\n      jumpi\n      dup1\n      0x70a08231\n      eq\n      tag_3\n      jumpi\n      dup1\n      0x8da5cb5b\n      eq\n      tag_4\n      jumpi\n      dup1\n      0x9ad2cd14\n      eq\n      tag_5\n      jumpi\n      dup1\n      0xa4beda63\n      eq\n      tag_6\n      jumpi\n    tag_1:\n      0x00\n      dup1\n      revert\n        /* \"faucet.sol\":887:1315  function requestTokens(address payable _requestor) public payable {... */\n    tag_2:\n      tag_7\n      0x04\n      dup1\n      calldatasize\n      sub\n      dup2\n      add\n      swap1\n      tag_8\n      swap2\n      swap1\n      tag_9\n      jump\t// in\n    tag_8:\n      tag_10\n      jump\t// in\n    tag_7:\n      stop\n        /* \"faucet.sol\":711:824  function balanceOf(address tokenOwner) public view returns (uint256) {... */\n    tag_3:\n      callvalue\n      dup1\n      iszero\n      tag_11\n      jumpi\n      0x00\n      dup1\n      revert\n    tag_11:\n      pop\n      tag_12\n      0x04\n      dup1\n      calldatasize\n      sub\n      dup2\n      add\n      swap1\n      tag_13\n      swap2\n      swap1\n      tag_14\n      jump\t// in\n    tag_13:\n      tag_15\n      jump\t// in\n    tag_12:\n      mload(0x40)\n      tag_16\n      swap2\n      swap1\n      tag_17\n      jump\t// in\n    tag_16:\n      mload(0x40)\n      dup1\n      swap2\n      sub\n      swap1\n      return\n        /* \"faucet.sol\":158:178  address public owner */\n    tag_4:\n      callvalue\n      dup1\n      iszero\n      tag_18\n      jumpi\n      0x00\n      dup1\n      revert\n    tag_18:\n      pop\n      tag_19\n      tag_20\n      jump\t// in\n    tag_19:\n      mload(0x40)\n      tag_21\n      swap2\n      swap1\n      tag_22\n      jump\t// in\n    tag_21:\n      mload(0x40)\n      dup1\n      swap2\n      sub\n      swap1\n      return\n        /* \"faucet.sol\":184:225  uint public amountAllowed = 10*(10 ** 18) */\n    tag_5:\n      callvalue\n      dup1\n      iszero\n      tag_23\n      jumpi\n      0x00\n      dup1\n      revert\n    tag_23:\n      pop\n      tag_24\n      tag_25\n      jump\t// in\n    tag_24:\n      mload(0x40)\n      tag_26\n      swap2\n      swap1\n      tag_17\n      jump\t// in\n    tag_26:\n      mload(0x40)\n      dup1\n      swap2\n      sub\n      swap1\n      return\n        /* \"faucet.sol\":338:378  mapping(address => uint) public lockTime */\n    tag_6:\n      callvalue\n      dup1\n      iszero\n      tag_27\n      jumpi\n      0x00\n      dup1\n      revert\n    tag_27:\n      pop\n      tag_28\n      0x04\n      dup1\n      calldatasize\n      sub\n      dup2\n      add\n      swap1\n      tag_29\n      swap2\n      swap1\n      tag_14\n      jump\t// in\n    tag_29:\n      tag_30\n      jump\t// in\n    tag_28:\n      mload(0x40)\n      tag_31\n      swap2\n      swap1\n      tag_17\n      jump\t// in\n    tag_31:\n      mload(0x40)\n      dup1\n      swap2\n      sub\n      swap1\n      return\n        /* \"faucet.sol\":887:1315  function requestTokens(address payable _requestor) public payable {... */\n    tag_10:\n        /* \"faucet.sol\":1055:1063  lockTime */\n      0x02\n        /* \"faucet.sol\":1055:1075  lockTime[msg.sender] */\n      0x00\n        /* \"faucet.sol\":1064:1074  msg.sender */\n      caller\n        /* \"faucet.sol\":1055:1075  lockTime[msg.sender] */\n      0xffffffffffffffffffffffffffffffffffffffff\n      and\n      0xffffffffffffffffffffffffffffffffffffffff\n      and\n      dup2\n      mstore\n      0x20\n      add\n      swap1\n      dup2\n      mstore\n      0x20\n      add\n      0x00\n      keccak256\n      sload\n        /* \"faucet.sol\":1037:1052  block.timestamp */\n      timestamp\n        /* \"faucet.sol\":1037:1075  block.timestamp > lockTime[msg.sender] */\n      gt\n        /* \"faucet.sol\":1029:1129  require(block.timestamp > lockTime[msg.sender], \"lock time has not expired. Please try again later\") */\n      tag_33\n      jumpi\n      mload(0x40)\n      0x08c379a000000000000000000000000000000000000000000000000000000000\n      dup2\n      mstore\n      0x04\n      add\n      tag_34\n      swap1\n      tag_35\n      jump\t// in\n    tag_34:\n      mload(0x40)\n      dup1\n      swap2\n      sub\n      swap1\n      revert\n    tag_33:\n        /* \"faucet.sol\":1148:1158  _requestor */\n      dup1\n        /* \"faucet.sol\":1148:1167  _requestor.transfer */\n      0xffffffffffffffffffffffffffffffffffffffff\n      and\n        /* \"faucet.sol\":1148:1182  _requestor.transfer(amountAllowed) */\n      0x08fc\n        /* \"faucet.sol\":1168:1181  amountAllowed */\n      sload(0x01)\n        /* \"faucet.sol\":1148:1182  _requestor.transfer(amountAllowed) */\n      swap1\n      dup2\n      iszero\n      mul\n      swap1\n      mload(0x40)\n      0x00\n      mload(0x40)\n      dup1\n      dup4\n      sub\n      dup2\n      dup6\n      dup9\n      dup9\n      call\n      swap4\n      pop\n      pop\n      pop\n      pop\n      iszero\n      dup1\n      iszero\n      tag_37\n      jumpi\n      returndatasize\n      0x00\n      dup1\n      returndatacopy\n      revert(0x00, returndatasize)\n    tag_37:\n      pop\n        /* \"faucet.sol\":1219:1232  amountAllowed */\n      sload(0x01)\n        /* \"faucet.sol\":1200:1208  balances */\n      0x03\n        /* \"faucet.sol\":1200:1215  balances[owner] */\n      0x00\n        /* \"faucet.sol\":1209:1214  owner */\n      dup1\n      0x00\n      swap1\n      sload\n      swap1\n      0x0100\n      exp\n      swap1\n      div\n      0xffffffffffffffffffffffffffffffffffffffff\n      and\n        /* \"faucet.sol\":1200:1215  balances[owner] */\n      0xffffffffffffffffffffffffffffffffffffffff\n      and\n      0xffffffffffffffffffffffffffffffffffffffff\n      and\n      dup2\n      mstore\n      0x20\n      add\n      swap1\n      dup2\n      mstore\n      0x20\n      add\n      0x00\n      keccak256\n      0x00\n        /* \"faucet.sol\":1200:1232  balances[owner] -= amountAllowed */\n      dup3\n      dup3\n      sload\n      tag_38\n      swap2\n      swap1\n      tag_39\n      jump\t// in\n    tag_38:\n      swap3\n      pop\n      pop\n      dup2\n      swap1\n      sstore\n      pop\n        /* \"faucet.sol\":1299:1308  1 minutes */\n      0x3c\n        /* \"faucet.sol\":1281:1296  block.timestamp */\n      timestamp\n        /* \"faucet.sol\":1281:1308  block.timestamp + 1 minutes */\n      tag_40\n      swap2\n      swap1\n      tag_41\n      jump\t// in\n    tag_40:\n        /* \"faucet.sol\":1258:1266  lockTime */\n      0x02\n        /* \"faucet.sol\":1258:1278  lockTime[msg.sender] */\n      0x00\n        /* \"faucet.sol\":1267:1277  msg.sender */\n      caller\n        /* \"faucet.sol\":1258:1278  lockTime[msg.sender] */\n      0xffffffffffffffffffffffffffffffffffffffff\n      and\n      0xffffffffffffffffffffffffffffffffffffffff\n      and\n      dup2\n      mstore\n      0x20\n      add\n      swap1\n      dup2\n      mstore\n      0x20\n      add\n      0x00\n      keccak256\n        /* \"faucet.sol\":1258:1308  lockTime[msg.sender] = block.timestamp + 1 minutes */\n      dup2\n      swap1\n      sstore\n      pop\n        /* \"faucet.sol\":887:1315  function requestTokens(address payable _requestor) public payable {... */\n      pop\n      jump\t// out\n        /* \"faucet.sol\":711:824  function balanceOf(address tokenOwner) public view returns (uint256) {... */\n    tag_15:\n        /* \"faucet.sol\":771:778  uint256 */\n      0x00\n        /* \"faucet.sol\":797:805  balances */\n      0x03\n        /* \"faucet.sol\":797:817  balances[tokenOwner] */\n      0x00\n        /* \"faucet.sol\":806:816  tokenOwner */\n      dup4\n        /* \"faucet.sol\":797:817  balances[tokenOwner] */\n      0xffffffffffffffffffffffffffffffffffffffff\n      and\n      0xffffffffffffffffffffffffffffffffffffffff\n      and\n      dup2\n      mstore\n      0x20\n      add\n      swap1\n      dup2\n      mstore\n      0x20\n      add\n      0x00\n      keccak256\n      sload\n        /* \"faucet.sol\":790:817  return balances[tokenOwner] */\n      swap1\n      pop\n        /* \"faucet.sol\":711:824  function balanceOf(address tokenOwner) public view returns (uint256) {... */\n      swap2\n      swap1\n      pop\n      jump\t// out\n        /* \"faucet.sol\":158:178  address public owner */\n    tag_20:\n      0x00\n      dup1\n      sload\n      swap1\n      0x0100\n      exp\n      swap1\n      div\n      0xffffffffffffffffffffffffffffffffffffffff\n      and\n      dup2\n      jump\t// out\n        /* \"faucet.sol\":184:225  uint public amountAllowed = 10*(10 ** 18) */\n    tag_25:\n      sload(0x01)\n      dup2\n      jump\t// out\n        /* \"faucet.sol\":338:378  mapping(address => uint) public lockTime */\n    tag_30:\n      mstore(0x20, 0x02)\n      dup1\n      0x00\n      mstore\n      keccak256(0x00, 0x40)\n      0x00\n      swap2\n      pop\n      swap1\n      pop\n      sload\n      dup2\n      jump\t// out\n        /* \"#utility.yul\":7:146   */\n    tag_44:\n      0x00\n        /* \"#utility.yul\":91:97   */\n      dup2\n        /* \"#utility.yul\":78:98   */\n      calldataload\n        /* \"#utility.yul\":69:98   */\n      swap1\n      pop\n        /* \"#utility.yul\":107:140   */\n      tag_46\n        /* \"#utility.yul\":134:139   */\n      dup2\n        /* \"#utility.yul\":107:140   */\n      tag_47\n      jump\t// in\n    tag_46:\n        /* \"#utility.yul\":59:146   */\n      swap3\n      swap2\n      pop\n      pop\n      jump\t// out\n        /* \"#utility.yul\":152:307   */\n    tag_48:\n      0x00\n        /* \"#utility.yul\":244:250   */\n      dup2\n        /* \"#utility.yul\":231:251   */\n      calldataload\n        /* \"#utility.yul\":222:251   */\n      swap1\n      pop\n        /* \"#utility.yul\":260:301   */\n      tag_50\n        /* \"#utility.yul\":295:300   */\n      dup2\n        /* \"#utility.yul\":260:301   */\n      tag_51\n      jump\t// in\n    tag_50:\n        /* \"#utility.yul\":212:307   */\n      swap3\n      swap2\n      pop\n      pop\n      jump\t// out\n        /* \"#utility.yul\":313:575   */\n    tag_14:\n      0x00\n        /* \"#utility.yul\":421:423   */\n      0x20\n        /* \"#utility.yul\":409:418   */\n      dup3\n        /* \"#utility.yul\":400:407   */\n      dup5\n        /* \"#utility.yul\":396:419   */\n      sub\n        /* \"#utility.yul\":392:424   */\n      slt\n        /* \"#utility.yul\":389:391   */\n      iszero\n      tag_53\n      jumpi\n        /* \"#utility.yul\":437:438   */\n      0x00\n        /* \"#utility.yul\":434:435   */\n      dup1\n        /* \"#utility.yul\":427:439   */\n      revert\n        /* \"#utility.yul\":389:391   */\n    tag_53:\n        /* \"#utility.yul\":480:481   */\n      0x00\n        /* \"#utility.yul\":505:558   */\n      tag_54\n        /* \"#utility.yul\":550:557   */\n      dup5\n        /* \"#utility.yul\":541:547   */\n      dup3\n        /* \"#utility.yul\":530:539   */\n      dup6\n        /* \"#utility.yul\":526:548   */\n      add\n        /* \"#utility.yul\":505:558   */\n      tag_44\n      jump\t// in\n    tag_54:\n        /* \"#utility.yul\":495:558   */\n      swap2\n      pop\n        /* \"#utility.yul\":451:568   */\n      pop\n        /* \"#utility.yul\":379:575   */\n      swap3\n      swap2\n      pop\n      pop\n      jump\t// out\n        /* \"#utility.yul\":581:859   */\n    tag_9:\n      0x00\n        /* \"#utility.yul\":697:699   */\n      0x20\n        /* \"#utility.yul\":685:694   */\n      dup3\n        /* \"#utility.yul\":676:683   */\n      dup5\n        /* \"#utility.yul\":672:695   */\n      sub\n        /* \"#utility.yul\":668:700   */\n      slt\n        /* \"#utility.yul\":665:667   */\n      iszero\n      tag_56\n      jumpi\n        /* \"#utility.yul\":713:714   */\n      0x00\n        /* \"#utility.yul\":710:711   */\n      dup1\n        /* \"#utility.yul\":703:715   */\n      revert\n        /* \"#utility.yul\":665:667   */\n    tag_56:\n        /* \"#utility.yul\":756:757   */\n      0x00\n        /* \"#utility.yul\":781:842   */\n      tag_57\n        /* \"#utility.yul\":834:841   */\n      dup5\n        /* \"#utility.yul\":825:831   */\n      dup3\n        /* \"#utility.yul\":814:823   */\n      dup6\n        /* \"#utility.yul\":810:832   */\n      add\n        /* \"#utility.yul\":781:842   */\n      tag_48\n      jump\t// in\n    tag_57:\n        /* \"#utility.yul\":771:842   */\n      swap2\n      pop\n        /* \"#utility.yul\":727:852   */\n      pop\n        /* \"#utility.yul\":655:859   */\n      swap3\n      swap2\n      pop\n      pop\n      jump\t// out\n        /* \"#utility.yul\":865:983   */\n    tag_58:\n        /* \"#utility.yul\":952:976   */\n      tag_60\n        /* \"#utility.yul\":970:975   */\n      dup2\n        /* \"#utility.yul\":952:976   */\n      tag_61\n      jump\t// in\n    tag_60:\n        /* \"#utility.yul\":947:950   */\n      dup3\n        /* \"#utility.yul\":940:977   */\n      mstore\n        /* \"#utility.yul\":930:983   */\n      pop\n      pop\n      jump\t// out\n        /* \"#utility.yul\":989:1355   */\n    tag_62:\n      0x00\n        /* \"#utility.yul\":1152:1219   */\n      tag_64\n        /* \"#utility.yul\":1216:1218   */\n      0x31\n        /* \"#utility.yul\":1211:1214   */\n      dup4\n        /* \"#utility.yul\":1152:1219   */\n      tag_65\n      jump\t// in\n    tag_64:\n        /* \"#utility.yul\":1145:1219   */\n      swap2\n      pop\n        /* \"#utility.yul\":1228:1321   */\n      tag_66\n        /* \"#utility.yul\":1317:1320   */\n      dup3\n        /* \"#utility.yul\":1228:1321   */\n      tag_67\n      jump\t// in\n    tag_66:\n        /* \"#utility.yul\":1346:1348   */\n      0x40\n        /* \"#utility.yul\":1341:1344   */\n      dup3\n        /* \"#utility.yul\":1337:1349   */\n      add\n        /* \"#utility.yul\":1330:1349   */\n      swap1\n      pop\n        /* \"#utility.yul\":1135:1355   */\n      swap2\n      swap1\n      pop\n      jump\t// out\n        /* \"#utility.yul\":1361:1479   */\n    tag_68:\n        /* \"#utility.yul\":1448:1472   */\n      tag_70\n        /* \"#utility.yul\":1466:1471   */\n      dup2\n        /* \"#utility.yul\":1448:1472   */\n      tag_71\n      jump\t// in\n    tag_70:\n        /* \"#utility.yul\":1443:1446   */\n      dup3\n        /* \"#utility.yul\":1436:1473   */\n      mstore\n        /* \"#utility.yul\":1426:1479   */\n      pop\n      pop\n      jump\t// out\n        /* \"#utility.yul\":1485:1707   */\n    tag_22:\n      0x00\n        /* \"#utility.yul\":1616:1618   */\n      0x20\n        /* \"#utility.yul\":1605:1614   */\n      dup3\n        /* \"#utility.yul\":1601:1619   */\n      add\n        /* \"#utility.yul\":1593:1619   */\n      swap1\n      pop\n        /* \"#utility.yul\":1629:1700   */\n      tag_73\n        /* \"#utility.yul\":1697:1698   */\n      0x00\n        /* \"#utility.yul\":1686:1695   */\n      dup4\n        /* \"#utility.yul\":1682:1699   */\n      add\n        /* \"#utility.yul\":1673:1679   */\n      dup5\n        /* \"#utility.yul\":1629:1700   */\n      tag_58\n      jump\t// in\n    tag_73:\n        /* \"#utility.yul\":1583:1707   */\n      swap3\n      swap2\n      pop\n      pop\n      jump\t// out\n        /* \"#utility.yul\":1713:2132   */\n    tag_35:\n      0x00\n        /* \"#utility.yul\":1917:1919   */\n      0x20\n        /* \"#utility.yul\":1906:1915   */\n      dup3\n        /* \"#utility.yul\":1902:1920   */\n      add\n        /* \"#utility.yul\":1894:1920   */\n      swap1\n      pop\n        /* \"#utility.yul\":1966:1975   */\n      dup2\n        /* \"#utility.yul\":1960:1964   */\n      dup2\n        /* \"#utility.yul\":1956:1976   */\n      sub\n        /* \"#utility.yul\":1952:1953   */\n      0x00\n        /* \"#utility.yul\":1941:1950   */\n      dup4\n        /* \"#utility.yul\":1937:1954   */\n      add\n        /* \"#utility.yul\":1930:1977   */\n      mstore\n        /* \"#utility.yul\":1994:2125   */\n      tag_75\n        /* \"#utility.yul\":2120:2124   */\n      dup2\n        /* \"#utility.yul\":1994:2125   */\n      tag_62\n      jump\t// in\n    tag_75:\n        /* \"#utility.yul\":1986:2125   */\n      swap1\n      pop\n        /* \"#utility.yul\":1884:2132   */\n      swap2\n      swap1\n      pop\n      jump\t// out\n        /* \"#utility.yul\":2138:2360   */\n    tag_17:\n      0x00\n        /* \"#utility.yul\":2269:2271   */\n      0x20\n        /* \"#utility.yul\":2258:2267   */\n      dup3\n        /* \"#utility.yul\":2254:2272   */\n      add\n        /* \"#utility.yul\":2246:2272   */\n      swap1\n      pop\n        /* \"#utility.yul\":2282:2353   */\n      tag_77\n        /* \"#utility.yul\":2350:2351   */\n      0x00\n        /* \"#utility.yul\":2339:2348   */\n      dup4\n        /* \"#utility.yul\":2335:2352   */\n      add\n        /* \"#utility.yul\":2326:2332   */\n      dup5\n        /* \"#utility.yul\":2282:2353   */\n      tag_68\n      jump\t// in\n    tag_77:\n        /* \"#utility.yul\":2236:2360   */\n      swap3\n      swap2\n      pop\n      pop\n      jump\t// out\n        /* \"#utility.yul\":2366:2535   */\n    tag_65:\n      0x00\n        /* \"#utility.yul\":2484:2490   */\n      dup3\n        /* \"#utility.yul\":2479:2482   */\n      dup3\n        /* \"#utility.yul\":2472:2491   */\n      mstore\n        /* \"#utility.yul\":2524:2528   */\n      0x20\n        /* \"#utility.yul\":2519:2522   */\n      dup3\n        /* \"#utility.yul\":2515:2529   */\n      add\n        /* \"#utility.yul\":2500:2529   */\n      swap1\n      pop\n        /* \"#utility.yul\":2462:2535   */\n      swap3\n      swap2\n      pop\n      pop\n      jump\t// out\n        /* \"#utility.yul\":2541:2846   */\n    tag_41:\n      0x00\n        /* \"#utility.yul\":2600:2620   */\n      tag_80\n        /* \"#utility.yul\":2618:2619   */\n      dup3\n        /* \"#utility.yul\":2600:2620   */\n      tag_71\n      jump\t// in\n    tag_80:\n        /* \"#utility.yul\":2595:2620   */\n      swap2\n      pop\n        /* \"#utility.yul\":2634:2654   */\n      tag_81\n        /* \"#utility.yul\":2652:2653   */\n      dup4\n        /* \"#utility.yul\":2634:2654   */\n      tag_71\n      jump\t// in\n    tag_81:\n        /* \"#utility.yul\":2629:2654   */\n      swap3\n      pop\n        /* \"#utility.yul\":2788:2789   */\n      dup3\n        /* \"#utility.yul\":2720:2786   */\n      0xffffffffffffffffffffffffffffffffffffffffffffffffffffffffffffffff\n        /* \"#utility.yul\":2716:2790   */\n      sub\n        /* \"#utility.yul\":2713:2714   */\n      dup3\n        /* \"#utility.yul\":2710:2791   */\n      gt\n        /* \"#utility.yul\":2707:2709   */\n      iszero\n      tag_82\n      jumpi\n        /* \"#utility.yul\":2794:2812   */\n      tag_83\n      tag_84\n      jump\t// in\n    tag_83:\n        /* \"#utility.yul\":2707:2709   */\n    tag_82:\n        /* \"#utility.yul\":2838:2839   */\n      dup3\n        /* \"#utility.yul\":2835:2836   */\n      dup3\n        /* \"#utility.yul\":2831:2840   */\n      add\n        /* \"#utility.yul\":2824:2840   */\n      swap1\n      pop\n        /* \"#utility.yul\":2585:2846   */\n      swap3\n      swap2\n      pop\n      pop\n      jump\t// out\n        /* \"#utility.yul\":2852:3043   */\n    tag_39:\n      0x00\n        /* \"#utility.yul\":2912:2932   */\n      tag_86\n        /* \"#utility.yul\":2930:2931   */\n      dup3\n        /* \"#utility.yul\":2912:2932   */\n      tag_71\n      jump\t// in\n    tag_86:\n        /* \"#utility.yul\":2907:2932   */\n      swap2\n      pop\n        /* \"#utility.yul\":2946:2966   */\n      tag_87\n        /* \"#utility.yul\":2964:2965   */\n      dup4\n        /* \"#utility.yul\":2946:2966   */\n      tag_71\n      jump\t// in\n    tag_87:\n        /* \"#utility.yul\":2941:2966   */\n      swap3\n      pop\n        /* \"#utility.yul\":2985:2986   */\n      dup3\n        /* \"#utility.yul\":2982:2983   */\n      dup3\n        /* \"#utility.yul\":2979:2987   */\n      lt\n        /* \"#utility.yul\":2976:2978   */\n      iszero\n      tag_88\n      jumpi\n        /* \"#utility.yul\":2990:3008   */\n      tag_89\n      tag_84\n      jump\t// in\n    tag_89:\n        /* \"#utility.yul\":2976:2978   */\n    tag_88:\n        /* \"#utility.yul\":3035:3036   */\n      dup3\n        /* \"#utility.yul\":3032:3033   */\n      dup3\n        /* \"#utility.yul\":3028:3037   */\n      sub\n        /* \"#utility.yul\":3020:3037   */\n      swap1\n      pop\n        /* \"#utility.yul\":2897:3043   */\n      swap3\n      swap2\n      pop\n      pop\n      jump\t// out\n        /* \"#utility.yul\":3049:3145   */\n    tag_61:\n      0x00\n        /* \"#utility.yul\":3115:3139   */\n      tag_91\n        /* \"#utility.yul\":3133:3138   */\n      dup3\n        /* \"#utility.yul\":3115:3139   */\n      tag_92\n      jump\t// in\n    tag_91:\n        /* \"#utility.yul\":3104:3139   */\n      swap1\n      pop\n        /* \"#utility.yul\":3094:3145   */\n      swap2\n      swap1\n      pop\n      jump\t// out\n        /* \"#utility.yul\":3151:3255   */\n    tag_93:\n      0x00\n        /* \"#utility.yul\":3225:3249   */\n      tag_95\n        /* \"#utility.yul\":3243:3248   */\n      dup3\n        /* \"#utility.yul\":3225:3249   */\n      tag_92\n      jump\t// in\n    tag_95:\n        /* \"#utility.yul\":3214:3249   */\n      swap1\n      pop\n        /* \"#utility.yul\":3204:3255   */\n      swap2\n      swap1\n      pop\n      jump\t// out\n        /* \"#utility.yul\":3261:3387   */\n    tag_92:\n      0x00\n        /* \"#utility.yul\":3338:3380   */\n      0xffffffffffffffffffffffffffffffffffffffff\n        /* \"#utility.yul\":3331:3336   */\n      dup3\n        /* \"#utility.yul\":3327:3381   */\n      and\n        /* \"#utility.yul\":3316:3381   */\n      swap1\n      pop\n        /* \"#utility.yul\":3306:3387   */\n      swap2\n      swap1\n      pop\n      jump\t// out\n        /* \"#utility.yul\":3393:3470   */\n    tag_71:\n      0x00\n        /* \"#utility.yul\":3459:3464   */\n      dup2\n        /* \"#utility.yul\":3448:3464   */\n      swap1\n      pop\n        /* \"#utility.yul\":3438:3470   */\n      swap2\n      swap1\n      pop\n      jump\t// out\n        /* \"#utility.yul\":3476:3656   */\n    tag_84:\n        /* \"#utility.yul\":3524:3601   */\n      0x4e487b7100000000000000000000000000000000000000000000000000000000\n        /* \"#utility.yul\":3521:3522   */\n      0x00\n        /* \"#utility.yul\":3514:3602   */\n      mstore\n        /* \"#utility.yul\":3621:3625   */\n      0x11\n        /* \"#utility.yul\":3618:3619   */\n      0x04\n        /* \"#utility.yul\":3611:3626   */\n      mstore\n        /* \"#utility.yul\":3645:3649   */\n      0x24\n        /* \"#utility.yul\":3642:3643   */\n      0x00\n        /* \"#utility.yul\":3635:3650   */\n      revert\n        /* \"#utility.yul\":3662:3898   */\n    tag_67:\n        /* \"#utility.yul\":3802:3836   */\n      0x6c6f636b2074696d6520686173206e6f7420657870697265642e20506c656173\n        /* \"#utility.yul\":3798:3799   */\n      0x00\n        /* \"#utility.yul\":3790:3796   */\n      dup3\n        /* \"#utility.yul\":3786:3800   */\n      add\n        /* \"#utility.yul\":3779:3837   */\n      mstore\n        /* \"#utility.yul\":3871:3890   */\n      0x652074727920616761696e206c61746572000000000000000000000000000000\n        /* \"#utility.yul\":3866:3868   */\n      0x20\n        /* \"#utility.yul\":3858:3864   */\n      dup3\n        /* \"#utility.yul\":3854:3869   */\n      add\n        /* \"#utility.yul\":3847:3891   */\n      mstore\n        /* \"#utility.yul\":3768:3898   */\n      pop\n      jump\t// out\n        /* \"#utility.yul\":3904:4026   */\n    tag_47:\n        /* \"#utility.yul\":3977:4001   */\n      tag_101\n        /* \"#utility.yul\":3995:4000   */\n      dup2\n        /* \"#utility.yul\":3977:4001   */\n      tag_61\n      jump\t// in\n    tag_101:\n        /* \"#utility.yul\":3970:3975   */\n      dup2\n        /* \"#utility.yul\":3967:4002   */\n      eq\n        /* \"#utility.yul\":3957:3959   */\n      tag_102\n      jumpi\n        /* \"#utility.yul\":4016:4017   */\n      0x00\n        /* \"#utility.yul\":4013:4014   */\n      dup1\n        /* \"#utility.yul\":4006:4018   */\n      revert\n        /* \"#utility.yul\":3957:3959   */\n    tag_102:\n        /* \"#utility.yul\":3947:4026   */\n      pop\n      jump\t// out\n        /* \"#utility.yul\":4032:4170   */\n    tag_51:\n        /* \"#utility.yul\":4113:4145   */\n      tag_104\n        /* \"#utility.yul\":4139:4144   */\n      dup2\n        /* \"#utility.yul\":4113:4145   */\n      tag_93\n      jump\t// in\n    tag_104:\n        /* \"#utility.yul\":4106:4111   */\n      dup2\n        /* \"#utility.yul\":4103:4146   */\n      eq\n        /* \"#utility.yul\":4093:4095   */\n      tag_105\n      jumpi\n        /* \"#utility.yul\":4160:4161   */\n      0x00\n        /* \"#utility.yul\":4157:4158   */\n      dup1\n        /* \"#utility.yul\":4150:4162   */\n      revert\n        /* \"#utility.yul\":4093:4095   */\n    tag_105:\n        /* \"#utility.yul\":4083:4170   */\n      pop\n      jump\t// out\n\n    auxdata: 0xa2646970667358221220601752385f6137bf1b46ed38920895a396d5459bf0a3dc56d5af7753d946a29364736f6c63430008030033\n}\n",
				"bytecode": {
					"linkReferences": {},
					"object": "6080604052678ac7230489e80000600155336000806101000a81548173ffffffffffffffffffffffffffffffffffffffff021916908373ffffffffffffffffffffffffffffffffffffffff16021790555061063a8061005f6000396000f3fe60806040526004361061004a5760003560e01c8063580f39041461004f57806370a082311461006b5780638da5cb5b146100a85780639ad2cd14146100d3578063a4beda63146100fe575b600080fd5b610069600480360381019061006491906103af565b61013b565b005b34801561007757600080fd5b50610092600480360381019061008d9190610386565b6102d1565b60405161009f9190610454565b60405180910390f35b3480156100b457600080fd5b506100bd61031a565b6040516100ca9190610419565b60405180910390f35b3480156100df57600080fd5b506100e861033e565b6040516100f59190610454565b60405180910390f35b34801561010a57600080fd5b5061012560048036038101906101209190610386565b610344565b6040516101329190610454565b60405180910390f35b600260003373ffffffffffffffffffffffffffffffffffffffff1673ffffffffffffffffffffffffffffffffffffffff1681526020019081526020016000205442116101bc576040517f08c379a00000000000000000000000000000000000000000000000000000000081526004016101b390610434565b60405180910390fd5b8073ffffffffffffffffffffffffffffffffffffffff166108fc6001549081150290604051600060405180830381858888f19350505050158015610204573d6000803e3d6000fd5b50600154600360008060009054906101000a900473ffffffffffffffffffffffffffffffffffffffff1673ffffffffffffffffffffffffffffffffffffffff1673ffffffffffffffffffffffffffffffffffffffff168152602001908152602001600020600082825461027791906104d6565b92505081905550603c4261028b9190610480565b600260003373ffffffffffffffffffffffffffffffffffffffff1673ffffffffffffffffffffffffffffffffffffffff1681526020019081526020016000208190555050565b6000600360008373ffffffffffffffffffffffffffffffffffffffff1673ffffffffffffffffffffffffffffffffffffffff168152602001908152602001600020549050919050565b60008054906101000a900473ffffffffffffffffffffffffffffffffffffffff1681565b60015481565b60026020528060005260406000206000915090505481565b60008135905061036b816105d6565b92915050565b600081359050610380816105ed565b92915050565b60006020828403121561039857600080fd5b60006103a68482850161035c565b91505092915050565b6000602082840312156103c157600080fd5b60006103cf84828501610371565b91505092915050565b6103e18161050a565b82525050565b60006103f460318361046f565b91506103ff82610587565b604082019050919050565b6104138161054e565b82525050565b600060208201905061042e60008301846103d8565b92915050565b6000602082019050818103600083015261044d816103e7565b9050919050565b6000602082019050610469600083018461040a565b92915050565b600082825260208201905092915050565b600061048b8261054e565b91506104968361054e565b9250827fffffffffffffffffffffffffffffffffffffffffffffffffffffffffffffffff038211156104cb576104ca610558565b5b828201905092915050565b60006104e18261054e565b91506104ec8361054e565b9250828210156104ff576104fe610558565b5b828203905092915050565b60006105158261052e565b9050919050565b60006105278261052e565b9050919050565b600073ffffffffffffffffffffffffffffffffffffffff82169050919050565b6000819050919050565b7f4e487b7100000000000000000000000000000000000000000000000000000000600052601160045260246000fd5b7f6c6f636b2074696d6520686173206e6f7420657870697265642e20506c65617360008201527f652074727920616761696e206c61746572000000000000000000000000000000602082015250565b6105df8161050a565b81146105ea57600080fd5b50565b6105f68161051c565b811461060157600080fd5b5056fea2646970667358221220601752385f6137bf1b46ed38920895a396d5459bf0a3dc56d5af7753d946a29364736f6c63430008030033",
					"opcodes": "PUSH1 0x80 PUSH1 0x40 MSTORE PUSH8 0x8AC7230489E80000 PUSH1 0x1 SSTORE CALLER PUSH1 0x0 DUP1 PUSH2 0x100 EXP DUP2 SLOAD DUP2 PUSH20 0xFFFFFFFFFFFFFFFFFFFFFFFFFFFFFFFFFFFFFFFF MUL NOT AND SWAP1 DUP4 PUSH20 0xFFFFFFFFFFFFFFFFFFFFFFFFFFFFFFFFFFFFFFFF AND MUL OR SWAP1 SSTORE POP PUSH2 0x63A DUP1 PUSH2 0x5F PUSH1 0x0 CODECOPY PUSH1 0x0 RETURN INVALID PUSH1 0x80 PUSH1 0x40 MSTORE PUSH1 0x4 CALLDATASIZE LT PUSH2 0x4A JUMPI PUSH1 0x0 CALLDATALOAD PUSH1 0xE0 SHR DUP1 PUSH4 0x580F3904 EQ PUSH2 0x4F JUMPI DUP1 PUSH4 0x70A08231 EQ PUSH2 0x6B JUMPI DUP1 PUSH4 0x8DA5CB5B EQ PUSH2 0xA8 JUMPI DUP1 PUSH4 0x9AD2CD14 EQ PUSH2 0xD3 JUMPI DUP1 PUSH4 0xA4BEDA63 EQ PUSH2 0xFE JUMPI JUMPDEST PUSH1 0x0 DUP1 REVERT JUMPDEST PUSH2 0x69 PUSH1 0x4 DUP1 CALLDATASIZE SUB DUP2 ADD SWAP1 PUSH2 0x64 SWAP2 SWAP1 PUSH2 0x3AF JUMP JUMPDEST PUSH2 0x13B JUMP JUMPDEST STOP JUMPDEST CALLVALUE DUP1 ISZERO PUSH2 0x77 JUMPI PUSH1 0x0 DUP1 REVERT JUMPDEST POP PUSH2 0x92 PUSH1 0x4 DUP1 CALLDATASIZE SUB DUP2 ADD SWAP1 PUSH2 0x8D SWAP2 SWAP1 PUSH2 0x386 JUMP JUMPDEST PUSH2 0x2D1 JUMP JUMPDEST PUSH1 0x40 MLOAD PUSH2 0x9F SWAP2 SWAP1 PUSH2 0x454 JUMP JUMPDEST PUSH1 0x40 MLOAD DUP1 SWAP2 SUB SWAP1 RETURN JUMPDEST CALLVALUE DUP1 ISZERO PUSH2 0xB4 JUMPI PUSH1 0x0 DUP1 REVERT JUMPDEST POP PUSH2 0xBD PUSH2 0x31A JUMP JUMPDEST PUSH1 0x40 MLOAD PUSH2 0xCA SWAP2 SWAP1 PUSH2 0x419 JUMP JUMPDEST PUSH1 0x40 MLOAD DUP1 SWAP2 SUB SWAP1 RETURN JUMPDEST CALLVALUE DUP1 ISZERO PUSH2 0xDF JUMPI PUSH1 0x0 DUP1 REVERT JUMPDEST POP PUSH2 0xE8 PUSH2 0x33E JUMP JUMPDEST PUSH1 0x40 MLOAD PUSH2 0xF5 SWAP2 SWAP1 PUSH2 0x454 JUMP JUMPDEST PUSH1 0x40 MLOAD DUP1 SWAP2 SUB SWAP1 RETURN JUMPDEST CALLVALUE DUP1 ISZERO PUSH2 0x10A JUMPI PUSH1 0x0 DUP1 REVERT JUMPDEST POP PUSH2 0x125 PUSH1 0x4 DUP1 CALLDATASIZE SUB DUP2 ADD SWAP1 PUSH2 0x120 SWAP2 SWAP1 PUSH2 0x386 JUMP JUMPDEST PUSH2 0x344 JUMP JUMPDEST PUSH1 0x40 MLOAD PUSH2 0x132 SWAP2 SWAP1 PUSH2 0x454 JUMP JUMPDEST PUSH1 0x40 MLOAD DUP1 SWAP2 SUB SWAP1 RETURN JUMPDEST PUSH1 0x2 PUSH1 0x0 CALLER PUSH20 0xFFFFFFFFFFFFFFFFFFFFFFFFFFFFFFFFFFFFFFFF AND PUSH20 0xFFFFFFFFFFFFFFFFFFFFFFFFFFFFFFFFFFFFFFFF AND DUP2 MSTORE PUSH1 0x20 ADD SWAP1 DUP2 MSTORE PUSH1 0x20 ADD PUSH1 0x0 KECCAK256 SLOAD TIMESTAMP GT PUSH2 0x1BC JUMPI PUSH1 0x40 MLOAD PUSH32 0x8C379A000000000000000000000000000000000000000000000000000000000 DUP2 MSTORE PUSH1 0x4 ADD PUSH2 0x1B3 SWAP1 PUSH2 0x434 JUMP JUMPDEST PUSH1 0x40 MLOAD DUP1 SWAP2 SUB SWAP1 REVERT JUMPDEST DUP1 PUSH20 0xFFFFFFFFFFFFFFFFFFFFFFFFFFFFFFFFFFFFFFFF AND PUSH2 0x8FC PUSH1 0x1 SLOAD SWAP1 DUP2 ISZERO MUL SWAP1 PUSH1 0x40 MLOAD PUSH1 0x0 PUSH1 0x40 MLOAD DUP1 DUP4 SUB DUP2 DUP6 DUP9 DUP9 CALL SWAP4 POP POP POP POP ISZERO DUP1 ISZERO PUSH2 0x204 JUMPI RETURNDATASIZE PUSH1 0x0 DUP1 RETURNDATACOPY RETURNDATASIZE PUSH1 0x0 REVERT JUMPDEST POP PUSH1 0x1 SLOAD PUSH1 0x3 PUSH1 0x0 DUP1 PUSH1 0x0 SWAP1 SLOAD SWAP1 PUSH2 0x100 EXP SWAP1 DIV PUSH20 0xFFFFFFFFFFFFFFFFFFFFFFFFFFFFFFFFFFFFFFFF AND PUSH20 0xFFFFFFFFFFFFFFFFFFFFFFFFFFFFFFFFFFFFFFFF AND PUSH20 0xFFFFFFFFFFFFFFFFFFFFFFFFFFFFFFFFFFFFFFFF AND DUP2 MSTORE PUSH1 0x20 ADD SWAP1 DUP2 MSTORE PUSH1 0x20 ADD PUSH1 0x0 KECCAK256 PUSH1 0x0 DUP3 DUP3 SLOAD PUSH2 0x277 SWAP2 SWAP1 PUSH2 0x4D6 JUMP JUMPDEST SWAP3 POP POP DUP2 SWAP1 SSTORE POP PUSH1 0x3C TIMESTAMP PUSH2 0x28B SWAP2 SWAP1 PUSH2 0x480 JUMP JUMPDEST PUSH1 0x2 PUSH1 0x0 CALLER PUSH20 0xFFFFFFFFFFFFFFFFFFFFFFFFFFFFFFFFFFFFFFFF AND PUSH20 0xFFFFFFFFFFFFFFFFFFFFFFFFFFFFFFFFFFFFFFFF AND DUP2 MSTORE PUSH1 0x20 ADD SWAP1 DUP2 MSTORE PUSH1 0x20 ADD PUSH1 0x0 KECCAK256 DUP2 SWAP1 SSTORE POP POP JUMP JUMPDEST PUSH1 0x0 PUSH1 0x3 PUSH1 0x0 DUP4 PUSH20 0xFFFFFFFFFFFFFFFFFFFFFFFFFFFFFFFFFFFFFFFF AND PUSH20 0xFFFFFFFFFFFFFFFFFFFFFFFFFFFFFFFFFFFFFFFF AND DUP2 MSTORE PUSH1 0x20 ADD SWAP1 DUP2 MSTORE PUSH1 0x20 ADD PUSH1 0x0 KECCAK256 SLOAD SWAP1 POP SWAP2 SWAP1 POP JUMP JUMPDEST PUSH1 0x0 DUP1 SLOAD SWAP1 PUSH2 0x100 EXP SWAP1 DIV PUSH20 0xFFFFFFFFFFFFFFFFFFFFFFFFFFFFFFFFFFFFFFFF AND DUP2 JUMP JUMPDEST PUSH1 0x1 SLOAD DUP2 JUMP JUMPDEST PUSH1 0x2 PUSH1 0x20 MSTORE DUP1 PUSH1 0x0 MSTORE PUSH1 0x40 PUSH1 0x0 KECCAK256 PUSH1 0x0 SWAP2 POP SWAP1 POP SLOAD DUP2 JUMP JUMPDEST PUSH1 0x0 DUP2 CALLDATALOAD SWAP1 POP PUSH2 0x36B DUP2 PUSH2 0x5D6 JUMP JUMPDEST SWAP3 SWAP2 POP POP JUMP JUMPDEST PUSH1 0x0 DUP2 CALLDATALOAD SWAP1 POP PUSH2 0x380 DUP2 PUSH2 0x5ED JUMP JUMPDEST SWAP3 SWAP2 POP POP JUMP JUMPDEST PUSH1 0x0 PUSH1 0x20 DUP3 DUP5 SUB SLT ISZERO PUSH2 0x398 JUMPI PUSH1 0x0 DUP1 REVERT JUMPDEST PUSH1 0x0 PUSH2 0x3A6 DUP5 DUP3 DUP6 ADD PUSH2 0x35C JUMP JUMPDEST SWAP2 POP POP SWAP3 SWAP2 POP POP JUMP JUMPDEST PUSH1 0x0 PUSH1 0x20 DUP3 DUP5 SUB SLT ISZERO PUSH2 0x3C1 JUMPI PUSH1 0x0 DUP1 REVERT JUMPDEST PUSH1 0x0 PUSH2 0x3CF DUP5 DUP3 DUP6 ADD PUSH2 0x371 JUMP JUMPDEST SWAP2 POP POP SWAP3 SWAP2 POP POP JUMP JUMPDEST PUSH2 0x3E1 DUP2 PUSH2 0x50A JUMP JUMPDEST DUP3 MSTORE POP POP JUMP JUMPDEST PUSH1 0x0 PUSH2 0x3F4 PUSH1 0x31 DUP4 PUSH2 0x46F JUMP JUMPDEST SWAP2 POP PUSH2 0x3FF DUP3 PUSH2 0x587 JUMP JUMPDEST PUSH1 0x40 DUP3 ADD SWAP1 POP SWAP2 SWAP1 POP JUMP JUMPDEST PUSH2 0x413 DUP2 PUSH2 0x54E JUMP JUMPDEST DUP3 MSTORE POP POP JUMP JUMPDEST PUSH1 0x0 PUSH1 0x20 DUP3 ADD SWAP1 POP PUSH2 0x42E PUSH1 0x0 DUP4 ADD DUP5 PUSH2 0x3D8 JUMP JUMPDEST SWAP3 SWAP2 POP POP JUMP JUMPDEST PUSH1 0x0 PUSH1 0x20 DUP3 ADD SWAP1 POP DUP2 DUP2 SUB PUSH1 0x0 DUP4 ADD MSTORE PUSH2 0x44D DUP2 PUSH2 0x3E7 JUMP JUMPDEST SWAP1 POP SWAP2 SWAP1 POP JUMP JUMPDEST PUSH1 0x0 PUSH1 0x20 DUP3 ADD SWAP1 POP PUSH2 0x469 PUSH1 0x0 DUP4 ADD DUP5 PUSH2 0x40A JUMP JUMPDEST SWAP3 SWAP2 POP POP JUMP JUMPDEST PUSH1 0x0 DUP3 DUP3 MSTORE PUSH1 0x20 DUP3 ADD SWAP1 POP SWAP3 SWAP2 POP POP JUMP JUMPDEST PUSH1 0x0 PUSH2 0x48B DUP3 PUSH2 0x54E JUMP JUMPDEST SWAP2 POP PUSH2 0x496 DUP4 PUSH2 0x54E JUMP JUMPDEST SWAP3 POP DUP3 PUSH32 0xFFFFFFFFFFFFFFFFFFFFFFFFFFFFFFFFFFFFFFFFFFFFFFFFFFFFFFFFFFFFFFFF SUB DUP3 GT ISZERO PUSH2 0x4CB JUMPI PUSH2 0x4CA PUSH2 0x558 JUMP JUMPDEST JUMPDEST DUP3 DUP3 ADD SWAP1 POP SWAP3 SWAP2 POP POP JUMP JUMPDEST PUSH1 0x0 PUSH2 0x4E1 DUP3 PUSH2 0x54E JUMP JUMPDEST SWAP2 POP PUSH2 0x4EC DUP4 PUSH2 0x54E JUMP JUMPDEST SWAP3 POP DUP3 DUP3 LT ISZERO PUSH2 0x4FF JUMPI PUSH2 0x4FE PUSH2 0x558 JUMP JUMPDEST JUMPDEST DUP3 DUP3 SUB SWAP1 POP SWAP3 SWAP2 POP POP JUMP JUMPDEST PUSH1 0x0 PUSH2 0x515 DUP3 PUSH2 0x52E JUMP JUMPDEST SWAP1 POP SWAP2 SWAP1 POP JUMP JUMPDEST PUSH1 0x0 PUSH2 0x527 DUP3 PUSH2 0x52E JUMP JUMPDEST SWAP1 POP SWAP2 SWAP1 POP JUMP JUMPDEST PUSH1 0x0 PUSH20 0xFFFFFFFFFFFFFFFFFFFFFFFFFFFFFFFFFFFFFFFF DUP3 AND SWAP1 POP SWAP2 SWAP1 POP JUMP JUMPDEST PUSH1 0x0 DUP2 SWAP1 POP SWAP2 SWAP1 POP JUMP JUMPDEST PUSH32 0x4E487B7100000000000000000000000000000000000000000000000000000000 PUSH1 0x0 MSTORE PUSH1 0x11 PUSH1 0x4 MSTORE PUSH1 0x24 PUSH1 0x0 REVERT JUMPDEST PUSH32 0x6C6F636B2074696D6520686173206E6F7420657870697265642E20506C656173 PUSH1 0x0 DUP3 ADD MSTORE PUSH32 0x652074727920616761696E206C61746572000000000000000000000000000000 PUSH1 0x20 DUP3 ADD MSTORE POP JUMP JUMPDEST PUSH2 0x5DF DUP2 PUSH2 0x50A JUMP JUMPDEST DUP2 EQ PUSH2 0x5EA JUMPI PUSH1 0x0 DUP1 REVERT JUMPDEST POP JUMP JUMPDEST PUSH2 0x5F6 DUP2 PUSH2 0x51C JUMP JUMPDEST DUP2 EQ PUSH2 0x601 JUMPI PUSH1 0x0 DUP1 REVERT JUMPDEST POP JUMP INVALID LOG2 PUSH5 0x6970667358 0x22 SLT KECCAK256 PUSH1 0x17 MSTORE CODESIZE 0x5F PUSH2 0x37BF SHL CHAINID 0xED CODESIZE SWAP3 ADDMOD SWAP6 LOG3 SWAP7 0xD5 GASLIMIT SWAP12 CREATE LOG3 0xDC JUMP 0xD5 0xAF PUSH24 0x53D946A29364736F6C634300080300330000000000000000 "
				},
				"gasEstimates": {
					"creation": {
						"codeDepositCost": "318800",
						"executionCost": "41203",
						"totalCost": "360003"
					},
					"external": {
						"amountAllowed()": "1173",
						"balanceOf(address)": "1541",
						"lockTime(address)": "1580",
						"owner()": "1233",
						"requestTokens(address)": "infinite"
					}
				},
				"methodIdentifiers": {
					"amountAllowed()": "9ad2cd14",
					"balanceOf(address)": "70a08231",
					"lockTime(address)": "a4beda63",
					"owner()": "8da5cb5b",
					"requestTokens(address)": "580f3904"
				}
			},
			"storageLayout": {
				"storage": [
					{
						"astId": 3,
						"contract": "faucet.sol:faucet",
						"label": "owner",
						"offset": 0,
						"slot": "0",
						"type": "t_address"
					},
					{
						"astId": 11,
						"contract": "faucet.sol:faucet",
						"label": "amountAllowed",
						"offset": 0,
						"slot": "1",
						"type": "t_uint256"
					},
					{
						"astId": 15,
						"contract": "faucet.sol:faucet",
						"label": "lockTime",
						"offset": 0,
						"slot": "2",
						"type": "t_mapping(t_address,t_uint256)"
					},
					{
						"astId": 19,
						"contract": "faucet.sol:faucet",
						"label": "balances",
						"offset": 0,
						"slot": "3",
						"type": "t_mapping(t_address,t_uint256)"
					}
				],
				"types": {
					"t_address": {
						"encoding": "inplace",
						"label": "address",
						"numberOfBytes": "20"
					},
					"t_mapping(t_address,t_uint256)": {
						"encoding": "mapping",
						"key": "t_address",
						"label": "mapping(address => uint256)",
						"numberOfBytes": "32",
						"value": "t_uint256"
					},
					"t_uint256": {
						"encoding": "inplace",
						"label": "uint256",
						"numberOfBytes": "32"
					}
				}
			},
			"userdoc": {
				"kind": "user",
				"methods": {},
				"version": 1
			}
		}
	}
}