{
	"token.sol": {
		"SampleToken": {
			"abi": [
				{
					"inputs": [
						{
							"internalType": "uint256",
							"name": "total",
							"type": "uint256"
						}
					],
					"stateMutability": "nonpayable",
					"type": "constructor"
				},
				{
					"anonymous": false,
					"inputs": [
						{
							"indexed": true,
							"internalType": "address",
							"name": "from",
							"type": "address"
						},
						{
							"indexed": true,
							"internalType": "address",
							"name": "to",
							"type": "address"
						},
						{
							"indexed": false,
							"internalType": "uint256",
							"name": "value",
							"type": "uint256"
						}
					],
					"name": "Transfer",
					"type": "event"
				},
				{
					"inputs": [
						{
							"internalType": "address",
							"name": "tokenOwner",
							"type": "address"
						}
					],
					"name": "balanceOf",
					"outputs": [
						{
							"internalType": "uint256",
							"name": "",
							"type": "uint256"
						}
					],
					"stateMutability": "view",
					"type": "function"
				},
				{
					"inputs": [],
					"name": "decimals",
					"outputs": [
						{
							"internalType": "uint8",
							"name": "",
							"type": "uint8"
						}
					],
					"stateMutability": "view",
					"type": "function"
				},
				{
					"inputs": [
						{
							"internalType": "uint256",
							"name": "_addToken",
							"type": "uint256"
						}
					],
					"name": "mint",
					"outputs": [
						{
							"internalType": "uint256",
							"name": "",
							"type": "uint256"
						}
					],
					"stateMutability": "nonpayable",
					"type": "function"
				},
				{
					"inputs": [],
					"name": "name",
					"outputs": [
						{
							"internalType": "string",
							"name": "",
							"type": "string"
						}
					],
					"stateMutability": "view",
					"type": "function"
				},
				{
					"inputs": [],
					"name": "symbol",
					"outputs": [
						{
							"internalType": "string",
							"name": "",
							"type": "string"
						}
					],
					"stateMutability": "view",
					"type": "function"
				},
				{
					"inputs": [],
					"name": "totalSupply",
					"outputs": [
						{
							"internalType": "uint256",
							"name": "",
							"type": "uint256"
						}
					],
					"stateMutability": "view",
					"type": "function"
				},
				{
					"inputs": [
						{
							"internalType": "address",
							"name": "receiver",
							"type": "address"
						},
						{
							"internalType": "uint256",
							"name": "numTokens",
							"type": "uint256"
						}
					],
					"name": "transfer",
					"outputs": [
						{
							"internalType": "bool",
							"name": "",
							"type": "bool"
						}
					],
					"stateMutability": "nonpayable",
					"type": "function"
				}
			],
			"devdoc": {
				"kind": "dev",
				"methods": {},
				"version": 1
			},
			"evm": {
				"assembly": "    /* \"token.sol\":808:3249  contract SampleToken is IERC20 {... */\n  mstore(0x40, 0x80)\n    /* \"token.sol\":1172:1281  constructor(uint256 total) {... */\n  callvalue\n  dup1\n  iszero\n  tag_1\n  jumpi\n  0x00\n  dup1\n  revert\ntag_1:\n  pop\n  mload(0x40)\n  sub(codesize, bytecodeSize)\n  dup1\n  bytecodeSize\n  dup4\n  codecopy\n  dup2\n  dup2\n  add\n  0x40\n  mstore\n  dup2\n  add\n  swap1\n  tag_2\n  swap2\n  swap1\n  tag_3\n  jump\t// in\ntag_2:\n    /* \"token.sol\":1224:1229  total */\n  dup1\n    /* \"token.sol\":1209:1221  totalSupply_ */\n  0x01\n    /* \"token.sol\":1209:1229  totalSupply_ = total */\n  dup2\n  swap1\n  sstore\n  pop\n    /* \"token.sol\":1262:1274  totalSupply_ */\n  sload(0x01)\n    /* \"token.sol\":1239:1247  balances */\n  0x00\n    /* \"token.sol\":1239:1259  balances[msg.sender] */\n  dup1\n    /* \"token.sol\":1248:1258  msg.sender */\n  caller\n    /* \"token.sol\":1239:1259  balances[msg.sender] */\n  0xffffffffffffffffffffffffffffffffffffffff\n  and\n  0xffffffffffffffffffffffffffffffffffffffff\n  and\n  dup2\n  mstore\n  0x20\n  add\n  swap1\n  dup2\n  mstore\n  0x20\n  add\n  0x00\n  keccak256\n    /* \"token.sol\":1239:1274  balances[msg.sender] = totalSupply_ */\n  dup2\n  swap1\n  sstore\n  pop\n    /* \"token.sol\":1172:1281  constructor(uint256 total) {... */\n  pop\n    /* \"token.sol\":808:3249  contract SampleToken is IERC20 {... */\n  jump(tag_6)\n    /* \"#utility.yul\":7:150   */\ntag_8:\n  0x00\n    /* \"#utility.yul\":95:101   */\n  dup2\n    /* \"#utility.yul\":89:102   */\n  mload\n    /* \"#utility.yul\":80:102   */\n  swap1\n  pop\n    /* \"#utility.yul\":111:144   */\n  tag_10\n    /* \"#utility.yul\":138:143   */\n  dup2\n    /* \"#utility.yul\":111:144   */\n  tag_11\n  jump\t// in\ntag_10:\n    /* \"#utility.yul\":70:150   */\n  swap3\n  swap2\n  pop\n  pop\n  jump\t// out\n    /* \"#utility.yul\":156:440   */\ntag_3:\n  0x00\n    /* \"#utility.yul\":275:277   */\n  0x20\n    /* \"#utility.yul\":263:272   */\n  dup3\n    /* \"#utility.yul\":254:261   */\n  dup5\n    /* \"#utility.yul\":250:273   */\n  sub\n    /* \"#utility.yul\":246:278   */\n  slt\n    /* \"#utility.yul\":243:245   */\n  iszero\n  tag_13\n  jumpi\n    /* \"#utility.yul\":291:292   */\n  0x00\n    /* \"#utility.yul\":288:289   */\n  dup1\n    /* \"#utility.yul\":281:293   */\n  revert\n    /* \"#utility.yul\":243:245   */\ntag_13:\n    /* \"#utility.yul\":334:335   */\n  0x00\n    /* \"#utility.yul\":359:423   */\n  tag_14\n    /* \"#utility.yul\":415:422   */\n  dup5\n    /* \"#utility.yul\":406:412   */\n  dup3\n    /* \"#utility.yul\":395:404   */\n  dup6\n    /* \"#utility.yul\":391:413   */\n  add\n    /* \"#utility.yul\":359:423   */\n  tag_8\n  jump\t// in\ntag_14:\n    /* \"#utility.yul\":349:423   */\n  swap2\n  pop\n    /* \"#utility.yul\":305:433   */\n  pop\n    /* \"#utility.yul\":233:440   */\n  swap3\n  swap2\n  pop\n  pop\n  jump\t// out\n    /* \"#utility.yul\":446:523   */\ntag_15:\n  0x00\n    /* \"#utility.yul\":512:517   */\n  dup2\n    /* \"#utility.yul\":501:517   */\n  swap1\n  pop\n    /* \"#utility.yul\":491:523   */\n  swap2\n  swap1\n  pop\n  jump\t// out\n    /* \"#utility.yul\":529:651   */\ntag_11:\n    /* \"#utility.yul\":602:626   */\n  tag_18\n    /* \"#utility.yul\":620:625   */\n  dup2\n    /* \"#utility.yul\":602:626   */\n  tag_15\n  jump\t// in\ntag_18:\n    /* \"#utility.yul\":595:600   */\n  dup2\n    /* \"#utility.yul\":592:627   */\n  eq\n    /* \"#utility.yul\":582:584   */\n  tag_19\n  jumpi\n    /* \"#utility.yul\":641:642   */\n  0x00\n    /* \"#utility.yul\":638:639   */\n  dup1\n    /* \"#utility.yul\":631:643   */\n  revert\n    /* \"#utility.yul\":582:584   */\ntag_19:\n    /* \"#utility.yul\":572:651   */\n  pop\n  jump\t// out\n    /* \"token.sol\":808:3249  contract SampleToken is IERC20 {... */\ntag_6:\n  dataSize(sub_0)\n  dup1\n  dataOffset(sub_0)\n  0x00\n  codecopy\n  0x00\n  return\nstop\n\nsub_0: assembly {\n        /* \"token.sol\":808:3249  contract SampleToken is IERC20 {... */\n      mstore(0x40, 0x80)\n      callvalue\n      dup1\n      iszero\n      tag_1\n      jumpi\n      0x00\n      dup1\n      revert\n    tag_1:\n      pop\n      jumpi(tag_2, lt(calldatasize, 0x04))\n      shr(0xe0, calldataload(0x00))\n      dup1\n      0x70a08231\n      gt\n      tag_10\n      jumpi\n      dup1\n      0x70a08231\n      eq\n      tag_6\n      jumpi\n      dup1\n      0x95d89b41\n      eq\n      tag_7\n      jumpi\n      dup1\n      0xa0712d68\n      eq\n      tag_8\n      jumpi\n      dup1\n      0xa9059cbb\n      eq\n      tag_9\n      jumpi\n      jump(tag_2)\n    tag_10:\n      dup1\n      0x06fdde03\n      eq\n      tag_3\n      jumpi\n      dup1\n      0x18160ddd\n      eq\n      tag_4\n      jumpi\n      dup1\n      0x313ce567\n      eq\n      tag_5\n      jumpi\n    tag_2:\n      0x00\n      dup1\n      revert\n        /* \"token.sol\":880:923  string public constant name = \"SampleToken\" */\n    tag_3:\n      tag_11\n      tag_12\n      jump\t// in\n    tag_11:\n      mload(0x40)\n      tag_13\n      swap2\n      swap1\n      tag_14\n      jump\t// in\n    tag_13:\n      mload(0x40)\n      dup1\n      swap2\n      sub\n      swap1\n      return\n        /* \"token.sol\":1287:1385  function totalSupply() public override view returns (uint256) {... */\n    tag_4:\n      tag_15\n      tag_16\n      jump\t// in\n    tag_15:\n      mload(0x40)\n      tag_17\n      swap2\n      swap1\n      tag_18\n      jump\t// in\n    tag_17:\n      mload(0x40)\n      dup1\n      swap2\n      sub\n      swap1\n      return\n        /* \"token.sol\":972:1006  uint8 public constant decimals = 0 */\n    tag_5:\n      tag_19\n      tag_20\n      jump\t// in\n    tag_19:\n      mload(0x40)\n      tag_21\n      swap2\n      swap1\n      tag_22\n      jump\t// in\n    tag_21:\n      mload(0x40)\n      dup1\n      swap2\n      sub\n      swap1\n      return\n        /* \"token.sol\":1391:1513  function balanceOf(address tokenOwner) public override view returns (uint256) {... */\n    tag_6:\n      tag_23\n      0x04\n      dup1\n      calldatasize\n      sub\n      dup2\n      add\n      swap1\n      tag_24\n      swap2\n      swap1\n      tag_25\n      jump\t// in\n    tag_24:\n      tag_26\n      jump\t// in\n    tag_23:\n      mload(0x40)\n      tag_27\n      swap2\n      swap1\n      tag_18\n      jump\t// in\n    tag_27:\n      mload(0x40)\n      dup1\n      swap2\n      sub\n      swap1\n      return\n        /* \"token.sol\":929:966  string public constant symbol = \"SMT\" */\n    tag_7:\n      tag_28\n      tag_29\n      jump\t// in\n    tag_28:\n      mload(0x40)\n      tag_30\n      swap2\n      swap1\n      tag_14\n      jump\t// in\n    tag_30:\n      mload(0x40)\n      dup1\n      swap2\n      sub\n      swap1\n      return\n        /* \"token.sol\":2150:2351  function mint(uint256 _addToken) public returns(uint256) {... */\n    tag_8:\n      tag_31\n      0x04\n      dup1\n      calldatasize\n      sub\n      dup2\n      add\n      swap1\n      tag_32\n      swap2\n      swap1\n      tag_33\n      jump\t// in\n    tag_32:\n      tag_34\n      jump\t// in\n    tag_31:\n      mload(0x40)\n      tag_35\n      swap2\n      swap1\n      tag_18\n      jump\t// in\n    tag_35:\n      mload(0x40)\n      dup1\n      swap2\n      sub\n      swap1\n      return\n        /* \"token.sol\":1519:2145  function transfer(address receiver, uint256 numTokens) public override returns (bool) {... */\n    tag_9:\n      tag_36\n      0x04\n      dup1\n      calldatasize\n      sub\n      dup2\n      add\n      swap1\n      tag_37\n      swap2\n      swap1\n      tag_38\n      jump\t// in\n    tag_37:\n      tag_39\n      jump\t// in\n    tag_36:\n      mload(0x40)\n      tag_40\n      swap2\n      swap1\n      tag_41\n      jump\t// in\n    tag_40:\n      mload(0x40)\n      dup1\n      swap2\n      sub\n      swap1\n      return\n        /* \"token.sol\":880:923  string public constant name = \"SampleToken\" */\n    tag_12:\n      mload(0x40)\n      dup1\n      0x40\n      add\n      0x40\n      mstore\n      dup1\n      0x0b\n      dup2\n      mstore\n      0x20\n      add\n      0x53616d706c65546f6b656e000000000000000000000000000000000000000000\n      dup2\n      mstore\n      pop\n      dup2\n      jump\t// out\n        /* \"token.sol\":1287:1385  function totalSupply() public override view returns (uint256) {... */\n    tag_16:\n        /* \"token.sol\":1340:1347  uint256 */\n      0x00\n        /* \"token.sol\":1366:1378  totalSupply_ */\n      sload(0x01)\n        /* \"token.sol\":1359:1378  return totalSupply_ */\n      swap1\n      pop\n        /* \"token.sol\":1287:1385  function totalSupply() public override view returns (uint256) {... */\n      swap1\n      jump\t// out\n        /* \"token.sol\":972:1006  uint8 public constant decimals = 0 */\n    tag_20:\n        /* \"token.sol\":1005:1006  0 */\n      0x00\n        /* \"token.sol\":972:1006  uint8 public constant decimals = 0 */\n      dup2\n      jump\t// out\n        /* \"token.sol\":1391:1513  function balanceOf(address tokenOwner) public override view returns (uint256) {... */\n    tag_26:\n        /* \"token.sol\":1460:1467  uint256 */\n      0x00\n        /* \"token.sol\":1486:1494  balances */\n      dup1\n        /* \"token.sol\":1486:1506  balances[tokenOwner] */\n      0x00\n        /* \"token.sol\":1495:1505  tokenOwner */\n      dup4\n        /* \"token.sol\":1486:1506  balances[tokenOwner] */\n      0xffffffffffffffffffffffffffffffffffffffff\n      and\n      0xffffffffffffffffffffffffffffffffffffffff\n      and\n      dup2\n      mstore\n      0x20\n      add\n      swap1\n      dup2\n      mstore\n      0x20\n      add\n      0x00\n      keccak256\n      sload\n        /* \"token.sol\":1479:1506  return balances[tokenOwner] */\n      swap1\n      pop\n        /* \"token.sol\":1391:1513  function balanceOf(address tokenOwner) public override view returns (uint256) {... */\n      swap2\n      swap1\n      pop\n      jump\t// out\n        /* \"token.sol\":929:966  string public constant symbol = \"SMT\" */\n    tag_29:\n      mload(0x40)\n      dup1\n      0x40\n      add\n      0x40\n      mstore\n      dup1\n      0x03\n      dup2\n      mstore\n      0x20\n      add\n      0x534d540000000000000000000000000000000000000000000000000000000000\n      dup2\n      mstore\n      pop\n      dup2\n      jump\t// out\n        /* \"token.sol\":2150:2351  function mint(uint256 _addToken) public returns(uint256) {... */\n    tag_34:\n        /* \"token.sol\":2198:2205  uint256 */\n      0x00\n        /* \"token.sol\":2247:2256  _addToken */\n      dup2\n        /* \"token.sol\":2232:2244  totalSupply_ */\n      sload(0x01)\n        /* \"token.sol\":2232:2256  totalSupply_ + _addToken */\n      tag_45\n      swap2\n      swap1\n      tag_46\n      jump\t// in\n    tag_45:\n        /* \"token.sol\":2217:2229  totalSupply_ */\n      0x01\n        /* \"token.sol\":2217:2256  totalSupply_ = totalSupply_ + _addToken */\n      dup2\n      swap1\n      sstore\n      pop\n        /* \"token.sol\":2290:2299  _addToken */\n      dup2\n        /* \"token.sol\":2266:2274  balances */\n      0x00\n        /* \"token.sol\":2266:2286  balances[msg.sender] */\n      dup1\n        /* \"token.sol\":2275:2285  msg.sender */\n      caller\n        /* \"token.sol\":2266:2286  balances[msg.sender] */\n      0xffffffffffffffffffffffffffffffffffffffff\n      and\n      0xffffffffffffffffffffffffffffffffffffffff\n      and\n      dup2\n      mstore\n      0x20\n      add\n      swap1\n      dup2\n      mstore\n      0x20\n      add\n      0x00\n      keccak256\n      0x00\n        /* \"token.sol\":2266:2299  balances[msg.sender] += _addToken */\n      dup3\n      dup3\n      sload\n      tag_47\n      swap2\n      swap1\n      tag_46\n      jump\t// in\n    tag_47:\n      swap3\n      pop\n      pop\n      dup2\n      swap1\n      sstore\n      pop\n        /* \"token.sol\":2331:2343  totalSupply_ */\n      sload(0x01)\n        /* \"token.sol\":2324:2343  return totalSupply_ */\n      swap1\n      pop\n        /* \"token.sol\":2150:2351  function mint(uint256 _addToken) public returns(uint256) {... */\n      swap2\n      swap1\n      pop\n      jump\t// out\n        /* \"token.sol\":1519:2145  function transfer(address receiver, uint256 numTokens) public override returns (bool) {... */\n    tag_39:\n        /* \"token.sol\":1599:1603  bool */\n      0x00\n        /* \"token.sol\":1913:1921  balances */\n      dup1\n        /* \"token.sol\":1913:1933  balances[msg.sender] */\n      0x00\n        /* \"token.sol\":1922:1932  msg.sender */\n      caller\n        /* \"token.sol\":1913:1933  balances[msg.sender] */\n      0xffffffffffffffffffffffffffffffffffffffff\n      and\n      0xffffffffffffffffffffffffffffffffffffffff\n      and\n      dup2\n      mstore\n      0x20\n      add\n      swap1\n      dup2\n      mstore\n      0x20\n      add\n      0x00\n      keccak256\n      sload\n        /* \"token.sol\":1900:1909  numTokens */\n      dup3\n        /* \"token.sol\":1900:1933  numTokens <= balances[msg.sender] */\n      gt\n      iszero\n        /* \"token.sol\":1892:1934  require(numTokens <= balances[msg.sender]) */\n      tag_49\n      jumpi\n      0x00\n      dup1\n      revert\n    tag_49:\n        /* \"token.sol\":1990:1999  numTokens */\n      dup2\n        /* \"token.sol\":1967:1975  balances */\n      0x00\n        /* \"token.sol\":1967:1987  balances[msg.sender] */\n      dup1\n        /* \"token.sol\":1976:1986  msg.sender */\n      caller\n        /* \"token.sol\":1967:1987  balances[msg.sender] */\n      0xffffffffffffffffffffffffffffffffffffffff\n      and\n      0xffffffffffffffffffffffffffffffffffffffff\n      and\n      dup2\n      mstore\n      0x20\n      add\n      swap1\n      dup2\n      mstore\n      0x20\n      add\n      0x00\n      keccak256\n      sload\n        /* \"token.sol\":1967:1999  balances[msg.sender] - numTokens */\n      tag_50\n      swap2\n      swap1\n      tag_51\n      jump\t// in\n    tag_50:\n        /* \"token.sol\":1944:1952  balances */\n      0x00\n        /* \"token.sol\":1944:1964  balances[msg.sender] */\n      dup1\n        /* \"token.sol\":1953:1963  msg.sender */\n      caller\n        /* \"token.sol\":1944:1964  balances[msg.sender] */\n      0xffffffffffffffffffffffffffffffffffffffff\n      and\n      0xffffffffffffffffffffffffffffffffffffffff\n      and\n      dup2\n      mstore\n      0x20\n      add\n      swap1\n      dup2\n      mstore\n      0x20\n      add\n      0x00\n      keccak256\n        /* \"token.sol\":1944:1999  balances[msg.sender] = balances[msg.sender] - numTokens */\n      dup2\n      swap1\n      sstore\n      pop\n        /* \"token.sol\":2051:2060  numTokens */\n      dup2\n        /* \"token.sol\":2030:2038  balances */\n      0x00\n        /* \"token.sol\":2030:2048  balances[receiver] */\n      dup1\n        /* \"token.sol\":2039:2047  receiver */\n      dup6\n        /* \"token.sol\":2030:2048  balances[receiver] */\n      0xffffffffffffffffffffffffffffffffffffffff\n      and\n      0xffffffffffffffffffffffffffffffffffffffff\n      and\n      dup2\n      mstore\n      0x20\n      add\n      swap1\n      dup2\n      mstore\n      0x20\n      add\n      0x00\n      keccak256\n      sload\n        /* \"token.sol\":2030:2060  balances[receiver] + numTokens */\n      tag_52\n      swap2\n      swap1\n      tag_46\n      jump\t// in\n    tag_52:\n        /* \"token.sol\":2009:2017  balances */\n      0x00\n        /* \"token.sol\":2009:2027  balances[receiver] */\n      dup1\n        /* \"token.sol\":2018:2026  receiver */\n      dup6\n        /* \"token.sol\":2009:2027  balances[receiver] */\n      0xffffffffffffffffffffffffffffffffffffffff\n      and\n      0xffffffffffffffffffffffffffffffffffffffff\n      and\n      dup2\n      mstore\n      0x20\n      add\n      swap1\n      dup2\n      mstore\n      0x20\n      add\n      0x00\n      keccak256\n        /* \"token.sol\":2009:2060  balances[receiver] = balances[receiver] + numTokens */\n      dup2\n      swap1\n      sstore\n      pop\n        /* \"token.sol\":2096:2104  receiver */\n      dup3\n        /* \"token.sol\":2075:2116  Transfer(msg.sender, receiver, numTokens) */\n      0xffffffffffffffffffffffffffffffffffffffff\n      and\n        /* \"token.sol\":2084:2094  msg.sender */\n      caller\n        /* \"token.sol\":2075:2116  Transfer(msg.sender, receiver, numTokens) */\n      0xffffffffffffffffffffffffffffffffffffffff\n      and\n      0xddf252ad1be2c89b69c2b068fc378daa952ba7f163c4a11628f55a4df523b3ef\n        /* \"token.sol\":2106:2115  numTokens */\n      dup5\n        /* \"token.sol\":2075:2116  Transfer(msg.sender, receiver, numTokens) */\n      mload(0x40)\n      tag_53\n      swap2\n      swap1\n      tag_18\n      jump\t// in\n    tag_53:\n      mload(0x40)\n      dup1\n      swap2\n      sub\n      swap1\n      log3\n        /* \"token.sol\":2133:2137  true */\n      0x01\n        /* \"token.sol\":2126:2137  return true */\n      swap1\n      pop\n        /* \"token.sol\":1519:2145  function transfer(address receiver, uint256 numTokens) public override returns (bool) {... */\n      swap3\n      swap2\n      pop\n      pop\n      jump\t// out\n        /* \"#utility.yul\":7:146   */\n    tag_55:\n      0x00\n        /* \"#utility.yul\":91:97   */\n      dup2\n        /* \"#utility.yul\":78:98   */\n      calldataload\n        /* \"#utility.yul\":69:98   */\n      swap1\n      pop\n        /* \"#utility.yul\":107:140   */\n      tag_57\n        /* \"#utility.yul\":134:139   */\n      dup2\n        /* \"#utility.yul\":107:140   */\n      tag_58\n      jump\t// in\n    tag_57:\n        /* \"#utility.yul\":59:146   */\n      swap3\n      swap2\n      pop\n      pop\n      jump\t// out\n        /* \"#utility.yul\":152:291   */\n    tag_59:\n      0x00\n        /* \"#utility.yul\":236:242   */\n      dup2\n        /* \"#utility.yul\":223:243   */\n      calldataload\n        /* \"#utility.yul\":214:243   */\n      swap1\n      pop\n        /* \"#utility.yul\":252:285   */\n      tag_61\n        /* \"#utility.yul\":279:284   */\n      dup2\n        /* \"#utility.yul\":252:285   */\n      tag_62\n      jump\t// in\n    tag_61:\n        /* \"#utility.yul\":204:291   */\n      swap3\n      swap2\n      pop\n      pop\n      jump\t// out\n        /* \"#utility.yul\":297:559   */\n    tag_25:\n      0x00\n        /* \"#utility.yul\":405:407   */\n      0x20\n        /* \"#utility.yul\":393:402   */\n      dup3\n        /* \"#utility.yul\":384:391   */\n      dup5\n        /* \"#utility.yul\":380:403   */\n      sub\n        /* \"#utility.yul\":376:408   */\n      slt\n        /* \"#utility.yul\":373:375   */\n      iszero\n      tag_64\n      jumpi\n        /* \"#utility.yul\":421:422   */\n      0x00\n        /* \"#utility.yul\":418:419   */\n      dup1\n        /* \"#utility.yul\":411:423   */\n      revert\n        /* \"#utility.yul\":373:375   */\n    tag_64:\n        /* \"#utility.yul\":464:465   */\n      0x00\n        /* \"#utility.yul\":489:542   */\n      tag_65\n        /* \"#utility.yul\":534:541   */\n      dup5\n        /* \"#utility.yul\":525:531   */\n      dup3\n        /* \"#utility.yul\":514:523   */\n      dup6\n        /* \"#utility.yul\":510:532   */\n      add\n        /* \"#utility.yul\":489:542   */\n      tag_55\n      jump\t// in\n    tag_65:\n        /* \"#utility.yul\":479:542   */\n      swap2\n      pop\n        /* \"#utility.yul\":435:552   */\n      pop\n        /* \"#utility.yul\":363:559   */\n      swap3\n      swap2\n      pop\n      pop\n      jump\t// out\n        /* \"#utility.yul\":565:972   */\n    tag_38:\n      0x00\n      dup1\n        /* \"#utility.yul\":690:692   */\n      0x40\n        /* \"#utility.yul\":678:687   */\n      dup4\n        /* \"#utility.yul\":669:676   */\n      dup6\n        /* \"#utility.yul\":665:688   */\n      sub\n        /* \"#utility.yul\":661:693   */\n      slt\n        /* \"#utility.yul\":658:660   */\n      iszero\n      tag_67\n      jumpi\n        /* \"#utility.yul\":706:707   */\n      0x00\n        /* \"#utility.yul\":703:704   */\n      dup1\n        /* \"#utility.yul\":696:708   */\n      revert\n        /* \"#utility.yul\":658:660   */\n    tag_67:\n        /* \"#utility.yul\":749:750   */\n      0x00\n        /* \"#utility.yul\":774:827   */\n      tag_68\n        /* \"#utility.yul\":819:826   */\n      dup6\n        /* \"#utility.yul\":810:816   */\n      dup3\n        /* \"#utility.yul\":799:808   */\n      dup7\n        /* \"#utility.yul\":795:817   */\n      add\n        /* \"#utility.yul\":774:827   */\n      tag_55\n      jump\t// in\n    tag_68:\n        /* \"#utility.yul\":764:827   */\n      swap3\n      pop\n        /* \"#utility.yul\":720:837   */\n      pop\n        /* \"#utility.yul\":876:878   */\n      0x20\n        /* \"#utility.yul\":902:955   */\n      tag_69\n        /* \"#utility.yul\":947:954   */\n      dup6\n        /* \"#utility.yul\":938:944   */\n      dup3\n        /* \"#utility.yul\":927:936   */\n      dup7\n        /* \"#utility.yul\":923:945   */\n      add\n        /* \"#utility.yul\":902:955   */\n      tag_59\n      jump\t// in\n    tag_69:\n        /* \"#utility.yul\":892:955   */\n      swap2\n      pop\n        /* \"#utility.yul\":847:965   */\n      pop\n        /* \"#utility.yul\":648:972   */\n      swap3\n      pop\n      swap3\n      swap1\n      pop\n      jump\t// out\n        /* \"#utility.yul\":978:1240   */\n    tag_33:\n      0x00\n        /* \"#utility.yul\":1086:1088   */\n      0x20\n        /* \"#utility.yul\":1074:1083   */\n      dup3\n        /* \"#utility.yul\":1065:1072   */\n      dup5\n        /* \"#utility.yul\":1061:1084   */\n      sub\n        /* \"#utility.yul\":1057:1089   */\n      slt\n        /* \"#utility.yul\":1054:1056   */\n      iszero\n      tag_71\n      jumpi\n        /* \"#utility.yul\":1102:1103   */\n      0x00\n        /* \"#utility.yul\":1099:1100   */\n      dup1\n        /* \"#utility.yul\":1092:1104   */\n      revert\n        /* \"#utility.yul\":1054:1056   */\n    tag_71:\n        /* \"#utility.yul\":1145:1146   */\n      0x00\n        /* \"#utility.yul\":1170:1223   */\n      tag_72\n        /* \"#utility.yul\":1215:1222   */\n      dup5\n        /* \"#utility.yul\":1206:1212   */\n      dup3\n        /* \"#utility.yul\":1195:1204   */\n      dup6\n        /* \"#utility.yul\":1191:1213   */\n      add\n        /* \"#utility.yul\":1170:1223   */\n      tag_59\n      jump\t// in\n    tag_72:\n        /* \"#utility.yul\":1160:1223   */\n      swap2\n      pop\n        /* \"#utility.yul\":1116:1233   */\n      pop\n        /* \"#utility.yul\":1044:1240   */\n      swap3\n      swap2\n      pop\n      pop\n      jump\t// out\n        /* \"#utility.yul\":1246:1355   */\n    tag_73:\n        /* \"#utility.yul\":1327:1348   */\n      tag_75\n        /* \"#utility.yul\":1342:1347   */\n      dup2\n        /* \"#utility.yul\":1327:1348   */\n      tag_76\n      jump\t// in\n    tag_75:\n        /* \"#utility.yul\":1322:1325   */\n      dup3\n        /* \"#utility.yul\":1315:1349   */\n      mstore\n        /* \"#utility.yul\":1305:1355   */\n      pop\n      pop\n      jump\t// out\n        /* \"#utility.yul\":1361:1725   */\n    tag_77:\n      0x00\n        /* \"#utility.yul\":1477:1516   */\n      tag_79\n        /* \"#utility.yul\":1510:1515   */\n      dup3\n        /* \"#utility.yul\":1477:1516   */\n      tag_80\n      jump\t// in\n    tag_79:\n        /* \"#utility.yul\":1532:1603   */\n      tag_81\n        /* \"#utility.yul\":1596:1602   */\n      dup2\n        /* \"#utility.yul\":1591:1594   */\n      dup6\n        /* \"#utility.yul\":1532:1603   */\n      tag_82\n      jump\t// in\n    tag_81:\n        /* \"#utility.yul\":1525:1603   */\n      swap4\n      pop\n        /* \"#utility.yul\":1612:1664   */\n      tag_83\n        /* \"#utility.yul\":1657:1663   */\n      dup2\n        /* \"#utility.yul\":1652:1655   */\n      dup6\n        /* \"#utility.yul\":1645:1649   */\n      0x20\n        /* \"#utility.yul\":1638:1643   */\n      dup7\n        /* \"#utility.yul\":1634:1650   */\n      add\n        /* \"#utility.yul\":1612:1664   */\n      tag_84\n      jump\t// in\n    tag_83:\n        /* \"#utility.yul\":1689:1718   */\n      tag_85\n        /* \"#utility.yul\":1711:1717   */\n      dup2\n        /* \"#utility.yul\":1689:1718   */\n      tag_86\n      jump\t// in\n    tag_85:\n        /* \"#utility.yul\":1684:1687   */\n      dup5\n        /* \"#utility.yul\":1680:1719   */\n      add\n        /* \"#utility.yul\":1673:1719   */\n      swap2\n      pop\n        /* \"#utility.yul\":1453:1725   */\n      pop\n      swap3\n      swap2\n      pop\n      pop\n      jump\t// out\n        /* \"#utility.yul\":1731:1849   */\n    tag_87:\n        /* \"#utility.yul\":1818:1842   */\n      tag_89\n        /* \"#utility.yul\":1836:1841   */\n      dup2\n        /* \"#utility.yul\":1818:1842   */\n      tag_90\n      jump\t// in\n    tag_89:\n        /* \"#utility.yul\":1813:1816   */\n      dup3\n        /* \"#utility.yul\":1806:1843   */\n      mstore\n        /* \"#utility.yul\":1796:1849   */\n      pop\n      pop\n      jump\t// out\n        /* \"#utility.yul\":1855:1967   */\n    tag_91:\n        /* \"#utility.yul\":1938:1960   */\n      tag_93\n        /* \"#utility.yul\":1954:1959   */\n      dup2\n        /* \"#utility.yul\":1938:1960   */\n      tag_94\n      jump\t// in\n    tag_93:\n        /* \"#utility.yul\":1933:1936   */\n      dup3\n        /* \"#utility.yul\":1926:1961   */\n      mstore\n        /* \"#utility.yul\":1916:1967   */\n      pop\n      pop\n      jump\t// out\n        /* \"#utility.yul\":1973:2183   */\n    tag_41:\n      0x00\n        /* \"#utility.yul\":2098:2100   */\n      0x20\n        /* \"#utility.yul\":2087:2096   */\n      dup3\n        /* \"#utility.yul\":2083:2101   */\n      add\n        /* \"#utility.yul\":2075:2101   */\n      swap1\n      pop\n        /* \"#utility.yul\":2111:2176   */\n      tag_96\n        /* \"#utility.yul\":2173:2174   */\n      0x00\n        /* \"#utility.yul\":2162:2171   */\n      dup4\n        /* \"#utility.yul\":2158:2175   */\n      add\n        /* \"#utility.yul\":2149:2155   */\n      dup5\n        /* \"#utility.yul\":2111:2176   */\n      tag_73\n      jump\t// in\n    tag_96:\n        /* \"#utility.yul\":2065:2183   */\n      swap3\n      swap2\n      pop\n      pop\n      jump\t// out\n        /* \"#utility.yul\":2189:2502   */\n    tag_14:\n      0x00\n        /* \"#utility.yul\":2340:2342   */\n      0x20\n        /* \"#utility.yul\":2329:2338   */\n      dup3\n        /* \"#utility.yul\":2325:2343   */\n      add\n        /* \"#utility.yul\":2317:2343   */\n      swap1\n      pop\n        /* \"#utility.yul\":2389:2398   */\n      dup2\n        /* \"#utility.yul\":2383:2387   */\n      dup2\n        /* \"#utility.yul\":2379:2399   */\n      sub\n        /* \"#utility.yul\":2375:2376   */\n      0x00\n        /* \"#utility.yul\":2364:2373   */\n      dup4\n        /* \"#utility.yul\":2360:2377   */\n      add\n        /* \"#utility.yul\":2353:2400   */\n      mstore\n        /* \"#utility.yul\":2417:2495   */\n      tag_98\n        /* \"#utility.yul\":2490:2494   */\n      dup2\n        /* \"#utility.yul\":2481:2487   */\n      dup5\n        /* \"#utility.yul\":2417:2495   */\n      tag_77\n      jump\t// in\n    tag_98:\n        /* \"#utility.yul\":2409:2495   */\n      swap1\n      pop\n        /* \"#utility.yul\":2307:2502   */\n      swap3\n      swap2\n      pop\n      pop\n      jump\t// out\n        /* \"#utility.yul\":2508:2730   */\n    tag_18:\n      0x00\n        /* \"#utility.yul\":2639:2641   */\n      0x20\n        /* \"#utility.yul\":2628:2637   */\n      dup3\n        /* \"#utility.yul\":2624:2642   */\n      add\n        /* \"#utility.yul\":2616:2642   */\n      swap1\n      pop\n        /* \"#utility.yul\":2652:2723   */\n      tag_100\n        /* \"#utility.yul\":2720:2721   */\n      0x00\n        /* \"#utility.yul\":2709:2718   */\n      dup4\n        /* \"#utility.yul\":2705:2722   */\n      add\n        /* \"#utility.yul\":2696:2702   */\n      dup5\n        /* \"#utility.yul\":2652:2723   */\n      tag_87\n      jump\t// in\n    tag_100:\n        /* \"#utility.yul\":2606:2730   */\n      swap3\n      swap2\n      pop\n      pop\n      jump\t// out\n        /* \"#utility.yul\":2736:2950   */\n    tag_22:\n      0x00\n        /* \"#utility.yul\":2863:2865   */\n      0x20\n        /* \"#utility.yul\":2852:2861   */\n      dup3\n        /* \"#utility.yul\":2848:2866   */\n      add\n        /* \"#utility.yul\":2840:2866   */\n      swap1\n      pop\n        /* \"#utility.yul\":2876:2943   */\n      tag_102\n        /* \"#utility.yul\":2940:2941   */\n      0x00\n        /* \"#utility.yul\":2929:2938   */\n      dup4\n        /* \"#utility.yul\":2925:2942   */\n      add\n        /* \"#utility.yul\":2916:2922   */\n      dup5\n        /* \"#utility.yul\":2876:2943   */\n      tag_91\n      jump\t// in\n    tag_102:\n        /* \"#utility.yul\":2830:2950   */\n      swap3\n      swap2\n      pop\n      pop\n      jump\t// out\n        /* \"#utility.yul\":2956:3055   */\n    tag_80:\n      0x00\n        /* \"#utility.yul\":3042:3047   */\n      dup2\n        /* \"#utility.yul\":3036:3048   */\n      mload\n        /* \"#utility.yul\":3026:3048   */\n      swap1\n      pop\n        /* \"#utility.yul\":3015:3055   */\n      swap2\n      swap1\n      pop\n      jump\t// out\n        /* \"#utility.yul\":3061:3230   */\n    tag_82:\n      0x00\n        /* \"#utility.yul\":3179:3185   */\n      dup3\n        /* \"#utility.yul\":3174:3177   */\n      dup3\n        /* \"#utility.yul\":3167:3186   */\n      mstore\n        /* \"#utility.yul\":3219:3223   */\n      0x20\n        /* \"#utility.yul\":3214:3217   */\n      dup3\n        /* \"#utility.yul\":3210:3224   */\n      add\n        /* \"#utility.yul\":3195:3224   */\n      swap1\n      pop\n        /* \"#utility.yul\":3157:3230   */\n      swap3\n      swap2\n      pop\n      pop\n      jump\t// out\n        /* \"#utility.yul\":3236:3541   */\n    tag_46:\n      0x00\n        /* \"#utility.yul\":3295:3315   */\n      tag_106\n        /* \"#utility.yul\":3313:3314   */\n      dup3\n        /* \"#utility.yul\":3295:3315   */\n      tag_90\n      jump\t// in\n    tag_106:\n        /* \"#utility.yul\":3290:3315   */\n      swap2\n      pop\n        /* \"#utility.yul\":3329:3349   */\n      tag_107\n        /* \"#utility.yul\":3347:3348   */\n      dup4\n        /* \"#utility.yul\":3329:3349   */\n      tag_90\n      jump\t// in\n    tag_107:\n        /* \"#utility.yul\":3324:3349   */\n      swap3\n      pop\n        /* \"#utility.yul\":3483:3484   */\n      dup3\n        /* \"#utility.yul\":3415:3481   */\n      0xffffffffffffffffffffffffffffffffffffffffffffffffffffffffffffffff\n        /* \"#utility.yul\":3411:3485   */\n      sub\n        /* \"#utility.yul\":3408:3409   */\n      dup3\n        /* \"#utility.yul\":3405:3486   */\n      gt\n        /* \"#utility.yul\":3402:3404   */\n      iszero\n      tag_108\n      jumpi\n        /* \"#utility.yul\":3489:3507   */\n      tag_109\n      tag_110\n      jump\t// in\n    tag_109:\n        /* \"#utility.yul\":3402:3404   */\n    tag_108:\n        /* \"#utility.yul\":3533:3534   */\n      dup3\n        /* \"#utility.yul\":3530:3531   */\n      dup3\n        /* \"#utility.yul\":3526:3535   */\n      add\n        /* \"#utility.yul\":3519:3535   */\n      swap1\n      pop\n        /* \"#utility.yul\":3280:3541   */\n      swap3\n      swap2\n      pop\n      pop\n      jump\t// out\n        /* \"#utility.yul\":3547:3738   */\n    tag_51:\n      0x00\n        /* \"#utility.yul\":3607:3627   */\n      tag_112\n        /* \"#utility.yul\":3625:3626   */\n      dup3\n        /* \"#utility.yul\":3607:3627   */\n      tag_90\n      jump\t// in\n    tag_112:\n        /* \"#utility.yul\":3602:3627   */\n      swap2\n      pop\n        /* \"#utility.yul\":3641:3661   */\n      tag_113\n        /* \"#utility.yul\":3659:3660   */\n      dup4\n        /* \"#utility.yul\":3641:3661   */\n      tag_90\n      jump\t// in\n    tag_113:\n        /* \"#utility.yul\":3636:3661   */\n      swap3\n      pop\n        /* \"#utility.yul\":3680:3681   */\n      dup3\n        /* \"#utility.yul\":3677:3678   */\n      dup3\n        /* \"#utility.yul\":3674:3682   */\n      lt\n        /* \"#utility.yul\":3671:3673   */\n      iszero\n      tag_114\n      jumpi\n        /* \"#utility.yul\":3685:3703   */\n      tag_115\n      tag_110\n      jump\t// in\n    tag_115:\n        /* \"#utility.yul\":3671:3673   */\n    tag_114:\n        /* \"#utility.yul\":3730:3731   */\n      dup3\n        /* \"#utility.yul\":3727:3728   */\n      dup3\n        /* \"#utility.yul\":3723:3732   */\n      sub\n        /* \"#utility.yul\":3715:3732   */\n      swap1\n      pop\n        /* \"#utility.yul\":3592:3738   */\n      swap3\n      swap2\n      pop\n      pop\n      jump\t// out\n        /* \"#utility.yul\":3744:3840   */\n    tag_116:\n      0x00\n        /* \"#utility.yul\":3810:3834   */\n      tag_118\n        /* \"#utility.yul\":3828:3833   */\n      dup3\n        /* \"#utility.yul\":3810:3834   */\n      tag_119\n      jump\t// in\n    tag_118:\n        /* \"#utility.yul\":3799:3834   */\n      swap1\n      pop\n        /* \"#utility.yul\":3789:3840   */\n      swap2\n      swap1\n      pop\n      jump\t// out\n        /* \"#utility.yul\":3846:3936   */\n    tag_76:\n      0x00\n        /* \"#utility.yul\":3923:3928   */\n      dup2\n        /* \"#utility.yul\":3916:3929   */\n      iszero\n        /* \"#utility.yul\":3909:3930   */\n      iszero\n        /* \"#utility.yul\":3898:3930   */\n      swap1\n      pop\n        /* \"#utility.yul\":3888:3936   */\n      swap2\n      swap1\n      pop\n      jump\t// out\n        /* \"#utility.yul\":3942:4068   */\n    tag_119:\n      0x00\n        /* \"#utility.yul\":4019:4061   */\n      0xffffffffffffffffffffffffffffffffffffffff\n        /* \"#utility.yul\":4012:4017   */\n      dup3\n        /* \"#utility.yul\":4008:4062   */\n      and\n        /* \"#utility.yul\":3997:4062   */\n      swap1\n      pop\n        /* \"#utility.yul\":3987:4068   */\n      swap2\n      swap1\n      pop\n      jump\t// out\n        /* \"#utility.yul\":4074:4151   */\n    tag_90:\n      0x00\n        /* \"#utility.yul\":4140:4145   */\n      dup2\n        /* \"#utility.yul\":4129:4145   */\n      swap1\n      pop\n        /* \"#utility.yul\":4119:4151   */\n      swap2\n      swap1\n      pop\n      jump\t// out\n        /* \"#utility.yul\":4157:4243   */\n    tag_94:\n      0x00\n        /* \"#utility.yul\":4232:4236   */\n      0xff\n        /* \"#utility.yul\":4225:4230   */\n      dup3\n        /* \"#utility.yul\":4221:4237   */\n      and\n        /* \"#utility.yul\":4210:4237   */\n      swap1\n      pop\n        /* \"#utility.yul\":4200:4243   */\n      swap2\n      swap1\n      pop\n      jump\t// out\n        /* \"#utility.yul\":4249:4556   */\n    tag_84:\n        /* \"#utility.yul\":4317:4318   */\n      0x00\n        /* \"#utility.yul\":4327:4440   */\n    tag_125:\n        /* \"#utility.yul\":4341:4347   */\n      dup4\n        /* \"#utility.yul\":4338:4339   */\n      dup2\n        /* \"#utility.yul\":4335:4348   */\n      lt\n        /* \"#utility.yul\":4327:4440   */\n      iszero\n      tag_127\n      jumpi\n        /* \"#utility.yul\":4426:4427   */\n      dup1\n        /* \"#utility.yul\":4421:4424   */\n      dup3\n        /* \"#utility.yul\":4417:4428   */\n      add\n        /* \"#utility.yul\":4411:4429   */\n      mload\n        /* \"#utility.yul\":4407:4408   */\n      dup2\n        /* \"#utility.yul\":4402:4405   */\n      dup5\n        /* \"#utility.yul\":4398:4409   */\n      add\n        /* \"#utility.yul\":4391:4430   */\n      mstore\n        /* \"#utility.yul\":4363:4365   */\n      0x20\n        /* \"#utility.yul\":4360:4361   */\n      dup2\n        /* \"#utility.yul\":4356:4366   */\n      add\n        /* \"#utility.yul\":4351:4366   */\n      swap1\n      pop\n        /* \"#utility.yul\":4327:4440   */\n      jump(tag_125)\n    tag_127:\n        /* \"#utility.yul\":4458:4464   */\n      dup4\n        /* \"#utility.yul\":4455:4456   */\n      dup2\n        /* \"#utility.yul\":4452:4465   */\n      gt\n        /* \"#utility.yul\":4449:4451   */\n      iszero\n      tag_128\n      jumpi\n        /* \"#utility.yul\":4538:4539   */\n      0x00\n        /* \"#utility.yul\":4529:4535   */\n      dup5\n        /* \"#utility.yul\":4524:4527   */\n      dup5\n        /* \"#utility.yul\":4520:4536   */\n      add\n        /* \"#utility.yul\":4513:4540   */\n      mstore\n        /* \"#utility.yul\":4449:4451   */\n    tag_128:\n        /* \"#utility.yul\":4298:4556   */\n      pop\n      pop\n      pop\n      pop\n      jump\t// out\n        /* \"#utility.yul\":4562:4742   */\n    tag_110:\n        /* \"#utility.yul\":4610:4687   */\n      0x4e487b7100000000000000000000000000000000000000000000000000000000\n        /* \"#utility.yul\":4607:4608   */\n      0x00\n        /* \"#utility.yul\":4600:4688   */\n      mstore\n        /* \"#utility.yul\":4707:4711   */\n      0x11\n        /* \"#utility.yul\":4704:4705   */\n      0x04\n        /* \"#utility.yul\":4697:4712   */\n      mstore\n        /* \"#utility.yul\":4731:4735   */\n      0x24\n        /* \"#utility.yul\":4728:4729   */\n      0x00\n        /* \"#utility.yul\":4721:4736   */\n      revert\n        /* \"#utility.yul\":4748:4850   */\n    tag_86:\n      0x00\n        /* \"#utility.yul\":4840:4842   */\n      0x1f\n        /* \"#utility.yul\":4836:4843   */\n      not\n        /* \"#utility.yul\":4831:4833   */\n      0x1f\n        /* \"#utility.yul\":4824:4829   */\n      dup4\n        /* \"#utility.yul\":4820:4834   */\n      add\n        /* \"#utility.yul\":4816:4844   */\n      and\n        /* \"#utility.yul\":4806:4844   */\n      swap1\n      pop\n        /* \"#utility.yul\":4796:4850   */\n      swap2\n      swap1\n      pop\n      jump\t// out\n        /* \"#utility.yul\":4856:4978   */\n    tag_58:\n        /* \"#utility.yul\":4929:4953   */\n      tag_132\n        /* \"#utility.yul\":4947:4952   */\n      dup2\n        /* \"#utility.yul\":4929:4953   */\n      tag_116\n      jump\t// in\n    tag_132:\n        /* \"#utility.yul\":4922:4927   */\n      dup2\n        /* \"#utility.yul\":4919:4954   */\n      eq\n        /* \"#utility.yul\":4909:4911   */\n      tag_133\n      jumpi\n        /* \"#utility.yul\":4968:4969   */\n      0x00\n        /* \"#utility.yul\":4965:4966   */\n      dup1\n        /* \"#utility.yul\":4958:4970   */\n      revert\n        /* \"#utility.yul\":4909:4911   */\n    tag_133:\n        /* \"#utility.yul\":4899:4978   */\n      pop\n      jump\t// out\n        /* \"#utility.yul\":4984:5106   */\n    tag_62:\n        /* \"#utility.yul\":5057:5081   */\n      tag_135\n        /* \"#utility.yul\":5075:5080   */\n      dup2\n        /* \"#utility.yul\":5057:5081   */\n      tag_90\n      jump\t// in\n    tag_135:\n        /* \"#utility.yul\":5050:5055   */\n      dup2\n        /* \"#utility.yul\":5047:5082   */\n      eq\n        /* \"#utility.yul\":5037:5039   */\n      tag_136\n      jumpi\n        /* \"#utility.yul\":5096:5097   */\n      0x00\n        /* \"#utility.yul\":5093:5094   */\n      dup1\n        /* \"#utility.yul\":5086:5098   */\n      revert\n        /* \"#utility.yul\":5037:5039   */\n    tag_136:\n        /* \"#utility.yul\":5027:5106   */\n      pop\n      jump\t// out\n\n    auxdata: 0xa26469706673582212201edb9c7646e08c7147aab8398258fb3b3cc71b31f77720aaaff67ab3b09fb99964736f6c63430008030033\n}\n",
				"bytecode": {
					"linkReferences": {},
					"object": "608060405234801561001057600080fd5b506040516108f13803806108f183398181016040528101906100329190610099565b806001819055506001546000803373ffffffffffffffffffffffffffffffffffffffff1673ffffffffffffffffffffffffffffffffffffffff16815260200190815260200160002081905550506100e3565b600081519050610093816100cc565b92915050565b6000602082840312156100ab57600080fd5b60006100b984828501610084565b91505092915050565b6000819050919050565b6100d5816100c2565b81146100e057600080fd5b50565b6107ff806100f26000396000f3fe608060405234801561001057600080fd5b506004361061007d5760003560e01c806370a082311161005b57806370a08231146100dc57806395d89b411461010c578063a0712d681461012a578063a9059cbb1461015a5761007d565b806306fdde031461008257806318160ddd146100a0578063313ce567146100be575b600080fd5b61008a61018a565b60405161009791906105d5565b60405180910390f35b6100a86101c3565b6040516100b591906105f7565b60405180910390f35b6100c66101cd565b6040516100d39190610612565b60405180910390f35b6100f660048036038101906100f191906104c6565b6101d2565b60405161010391906105f7565b60405180910390f35b61011461021a565b60405161012191906105d5565b60405180910390f35b610144600480360381019061013f919061052b565b610253565b60405161015191906105f7565b60405180910390f35b610174600480360381019061016f91906104ef565b6102c8565b60405161018191906105ba565b60405180910390f35b6040518060400160405280600b81526020017f53616d706c65546f6b656e00000000000000000000000000000000000000000081525081565b6000600154905090565b600081565b60008060008373ffffffffffffffffffffffffffffffffffffffff1673ffffffffffffffffffffffffffffffffffffffff168152602001908152602001600020549050919050565b6040518060400160405280600381526020017f534d54000000000000000000000000000000000000000000000000000000000081525081565b6000816001546102639190610649565b600181905550816000803373ffffffffffffffffffffffffffffffffffffffff1673ffffffffffffffffffffffffffffffffffffffff16815260200190815260200160002060008282546102b79190610649565b925050819055506001549050919050565b60008060003373ffffffffffffffffffffffffffffffffffffffff1673ffffffffffffffffffffffffffffffffffffffff1681526020019081526020016000205482111561031557600080fd5b816000803373ffffffffffffffffffffffffffffffffffffffff1673ffffffffffffffffffffffffffffffffffffffff1681526020019081526020016000205461035f919061069f565b6000803373ffffffffffffffffffffffffffffffffffffffff1673ffffffffffffffffffffffffffffffffffffffff16815260200190815260200160002081905550816000808573ffffffffffffffffffffffffffffffffffffffff1673ffffffffffffffffffffffffffffffffffffffff168152602001908152602001600020546103eb9190610649565b6000808573ffffffffffffffffffffffffffffffffffffffff1673ffffffffffffffffffffffffffffffffffffffff168152602001908152602001600020819055508273ffffffffffffffffffffffffffffffffffffffff163373ffffffffffffffffffffffffffffffffffffffff167fddf252ad1be2c89b69c2b068fc378daa952ba7f163c4a11628f55a4df523b3ef8460405161048a91906105f7565b60405180910390a36001905092915050565b6000813590506104ab8161079b565b92915050565b6000813590506104c0816107b2565b92915050565b6000602082840312156104d857600080fd5b60006104e68482850161049c565b91505092915050565b6000806040838503121561050257600080fd5b60006105108582860161049c565b9250506020610521858286016104b1565b9150509250929050565b60006020828403121561053d57600080fd5b600061054b848285016104b1565b91505092915050565b61055d816106e5565b82525050565b600061056e8261062d565b6105788185610638565b9350610588818560208601610728565b6105918161078a565b840191505092915050565b6105a581610711565b82525050565b6105b48161071b565b82525050565b60006020820190506105cf6000830184610554565b92915050565b600060208201905081810360008301526105ef8184610563565b905092915050565b600060208201905061060c600083018461059c565b92915050565b600060208201905061062760008301846105ab565b92915050565b600081519050919050565b600082825260208201905092915050565b600061065482610711565b915061065f83610711565b9250827fffffffffffffffffffffffffffffffffffffffffffffffffffffffffffffffff038211156106945761069361075b565b5b828201905092915050565b60006106aa82610711565b91506106b583610711565b9250828210156106c8576106c761075b565b5b828203905092915050565b60006106de826106f1565b9050919050565b60008115159050919050565b600073ffffffffffffffffffffffffffffffffffffffff82169050919050565b6000819050919050565b600060ff82169050919050565b60005b8381101561074657808201518184015260208101905061072b565b83811115610755576000848401525b50505050565b7f4e487b7100000000000000000000000000000000000000000000000000000000600052601160045260246000fd5b6000601f19601f8301169050919050565b6107a4816106d3565b81146107af57600080fd5b50565b6107bb81610711565b81146107c657600080fd5b5056fea26469706673582212201edb9c7646e08c7147aab8398258fb3b3cc71b31f77720aaaff67ab3b09fb99964736f6c63430008030033",
					"opcodes": "PUSH1 0x80 PUSH1 0x40 MSTORE CALLVALUE DUP1 ISZERO PUSH2 0x10 JUMPI PUSH1 0x0 DUP1 REVERT JUMPDEST POP PUSH1 0x40 MLOAD PUSH2 0x8F1 CODESIZE SUB DUP1 PUSH2 0x8F1 DUP4 CODECOPY DUP2 DUP2 ADD PUSH1 0x40 MSTORE DUP2 ADD SWAP1 PUSH2 0x32 SWAP2 SWAP1 PUSH2 0x99 JUMP JUMPDEST DUP1 PUSH1 0x1 DUP2 SWAP1 SSTORE POP PUSH1 0x1 SLOAD PUSH1 0x0 DUP1 CALLER PUSH20 0xFFFFFFFFFFFFFFFFFFFFFFFFFFFFFFFFFFFFFFFF AND PUSH20 0xFFFFFFFFFFFFFFFFFFFFFFFFFFFFFFFFFFFFFFFF AND DUP2 MSTORE PUSH1 0x20 ADD SWAP1 DUP2 MSTORE PUSH1 0x20 ADD PUSH1 0x0 KECCAK256 DUP2 SWAP1 SSTORE POP POP PUSH2 0xE3 JUMP JUMPDEST PUSH1 0x0 DUP2 MLOAD SWAP1 POP PUSH2 0x93 DUP2 PUSH2 0xCC JUMP JUMPDEST SWAP3 SWAP2 POP POP JUMP JUMPDEST PUSH1 0x0 PUSH1 0x20 DUP3 DUP5 SUB SLT ISZERO PUSH2 0xAB JUMPI PUSH1 0x0 DUP1 REVERT JUMPDEST PUSH1 0x0 PUSH2 0xB9 DUP5 DUP3 DUP6 ADD PUSH2 0x84 JUMP JUMPDEST SWAP2 POP POP SWAP3 SWAP2 POP POP JUMP JUMPDEST PUSH1 0x0 DUP2 SWAP1 POP SWAP2 SWAP1 POP JUMP JUMPDEST PUSH2 0xD5 DUP2 PUSH2 0xC2 JUMP JUMPDEST DUP2 EQ PUSH2 0xE0 JUMPI PUSH1 0x0 DUP1 REVERT JUMPDEST POP JUMP JUMPDEST PUSH2 0x7FF DUP1 PUSH2 0xF2 PUSH1 0x0 CODECOPY PUSH1 0x0 RETURN INVALID PUSH1 0x80 PUSH1 0x40 MSTORE CALLVALUE DUP1 ISZERO PUSH2 0x10 JUMPI PUSH1 0x0 DUP1 REVERT JUMPDEST POP PUSH1 0x4 CALLDATASIZE LT PUSH2 0x7D JUMPI PUSH1 0x0 CALLDATALOAD PUSH1 0xE0 SHR DUP1 PUSH4 0x70A08231 GT PUSH2 0x5B JUMPI DUP1 PUSH4 0x70A08231 EQ PUSH2 0xDC JUMPI DUP1 PUSH4 0x95D89B41 EQ PUSH2 0x10C JUMPI DUP1 PUSH4 0xA0712D68 EQ PUSH2 0x12A JUMPI DUP1 PUSH4 0xA9059CBB EQ PUSH2 0x15A JUMPI PUSH2 0x7D JUMP JUMPDEST DUP1 PUSH4 0x6FDDE03 EQ PUSH2 0x82 JUMPI DUP1 PUSH4 0x18160DDD EQ PUSH2 0xA0 JUMPI DUP1 PUSH4 0x313CE567 EQ PUSH2 0xBE JUMPI JUMPDEST PUSH1 0x0 DUP1 REVERT JUMPDEST PUSH2 0x8A PUSH2 0x18A JUMP JUMPDEST PUSH1 0x40 MLOAD PUSH2 0x97 SWAP2 SWAP1 PUSH2 0x5D5 JUMP JUMPDEST PUSH1 0x40 MLOAD DUP1 SWAP2 SUB SWAP1 RETURN JUMPDEST PUSH2 0xA8 PUSH2 0x1C3 JUMP JUMPDEST PUSH1 0x40 MLOAD PUSH2 0xB5 SWAP2 SWAP1 PUSH2 0x5F7 JUMP JUMPDEST PUSH1 0x40 MLOAD DUP1 SWAP2 SUB SWAP1 RETURN JUMPDEST PUSH2 0xC6 PUSH2 0x1CD JUMP JUMPDEST PUSH1 0x40 MLOAD PUSH2 0xD3 SWAP2 SWAP1 PUSH2 0x612 JUMP JUMPDEST PUSH1 0x40 MLOAD DUP1 SWAP2 SUB SWAP1 RETURN JUMPDEST PUSH2 0xF6 PUSH1 0x4 DUP1 CALLDATASIZE SUB DUP2 ADD SWAP1 PUSH2 0xF1 SWAP2 SWAP1 PUSH2 0x4C6 JUMP JUMPDEST PUSH2 0x1D2 JUMP JUMPDEST PUSH1 0x40 MLOAD PUSH2 0x103 SWAP2 SWAP1 PUSH2 0x5F7 JUMP JUMPDEST PUSH1 0x40 MLOAD DUP1 SWAP2 SUB SWAP1 RETURN JUMPDEST PUSH2 0x114 PUSH2 0x21A JUMP JUMPDEST PUSH1 0x40 MLOAD PUSH2 0x121 SWAP2 SWAP1 PUSH2 0x5D5 JUMP JUMPDEST PUSH1 0x40 MLOAD DUP1 SWAP2 SUB SWAP1 RETURN JUMPDEST PUSH2 0x144 PUSH1 0x4 DUP1 CALLDATASIZE SUB DUP2 ADD SWAP1 PUSH2 0x13F SWAP2 SWAP1 PUSH2 0x52B JUMP JUMPDEST PUSH2 0x253 JUMP JUMPDEST PUSH1 0x40 MLOAD PUSH2 0x151 SWAP2 SWAP1 PUSH2 0x5F7 JUMP JUMPDEST PUSH1 0x40 MLOAD DUP1 SWAP2 SUB SWAP1 RETURN JUMPDEST PUSH2 0x174 PUSH1 0x4 DUP1 CALLDATASIZE SUB DUP2 ADD SWAP1 PUSH2 0x16F SWAP2 SWAP1 PUSH2 0x4EF JUMP JUMPDEST PUSH2 0x2C8 JUMP JUMPDEST PUSH1 0x40 MLOAD PUSH2 0x181 SWAP2 SWAP1 PUSH2 0x5BA JUMP JUMPDEST PUSH1 0x40 MLOAD DUP1 SWAP2 SUB SWAP1 RETURN JUMPDEST PUSH1 0x40 MLOAD DUP1 PUSH1 0x40 ADD PUSH1 0x40 MSTORE DUP1 PUSH1 0xB DUP2 MSTORE PUSH1 0x20 ADD PUSH32 0x53616D706C65546F6B656E000000000000000000000000000000000000000000 DUP2 MSTORE POP DUP2 JUMP JUMPDEST PUSH1 0x0 PUSH1 0x1 SLOAD SWAP1 POP SWAP1 JUMP JUMPDEST PUSH1 0x0 DUP2 JUMP JUMPDEST PUSH1 0x0 DUP1 PUSH1 0x0 DUP4 PUSH20 0xFFFFFFFFFFFFFFFFFFFFFFFFFFFFFFFFFFFFFFFF AND PUSH20 0xFFFFFFFFFFFFFFFFFFFFFFFFFFFFFFFFFFFFFFFF AND DUP2 MSTORE PUSH1 0x20 ADD SWAP1 DUP2 MSTORE PUSH1 0x20 ADD PUSH1 0x0 KECCAK256 SLOAD SWAP1 POP SWAP2 SWAP1 POP JUMP JUMPDEST PUSH1 0x40 MLOAD DUP1 PUSH1 0x40 ADD PUSH1 0x40 MSTORE DUP1 PUSH1 0x3 DUP2 MSTORE PUSH1 0x20 ADD PUSH32 0x534D540000000000000000000000000000000000000000000000000000000000 DUP2 MSTORE POP DUP2 JUMP JUMPDEST PUSH1 0x0 DUP2 PUSH1 0x1 SLOAD PUSH2 0x263 SWAP2 SWAP1 PUSH2 0x649 JUMP JUMPDEST PUSH1 0x1 DUP2 SWAP1 SSTORE POP DUP2 PUSH1 0x0 DUP1 CALLER PUSH20 0xFFFFFFFFFFFFFFFFFFFFFFFFFFFFFFFFFFFFFFFF AND PUSH20 0xFFFFFFFFFFFFFFFFFFFFFFFFFFFFFFFFFFFFFFFF AND DUP2 MSTORE PUSH1 0x20 ADD SWAP1 DUP2 MSTORE PUSH1 0x20 ADD PUSH1 0x0 KECCAK256 PUSH1 0x0 DUP3 DUP3 SLOAD PUSH2 0x2B7 SWAP2 SWAP1 PUSH2 0x649 JUMP JUMPDEST SWAP3 POP POP DUP2 SWAP1 SSTORE POP PUSH1 0x1 SLOAD SWAP1 POP SWAP2 SWAP1 POP JUMP JUMPDEST PUSH1 0x0 DUP1 PUSH1 0x0 CALLER PUSH20 0xFFFFFFFFFFFFFFFFFFFFFFFFFFFFFFFFFFFFFFFF AND PUSH20 0xFFFFFFFFFFFFFFFFFFFFFFFFFFFFFFFFFFFFFFFF AND DUP2 MSTORE PUSH1 0x20 ADD SWAP1 DUP2 MSTORE PUSH1 0x20 ADD PUSH1 0x0 KECCAK256 SLOAD DUP3 GT ISZERO PUSH2 0x315 JUMPI PUSH1 0x0 DUP1 REVERT JUMPDEST DUP2 PUSH1 0x0 DUP1 CALLER PUSH20 0xFFFFFFFFFFFFFFFFFFFFFFFFFFFFFFFFFFFFFFFF AND PUSH20 0xFFFFFFFFFFFFFFFFFFFFFFFFFFFFFFFFFFFFFFFF AND DUP2 MSTORE PUSH1 0x20 ADD SWAP1 DUP2 MSTORE PUSH1 0x20 ADD PUSH1 0x0 KECCAK256 SLOAD PUSH2 0x35F SWAP2 SWAP1 PUSH2 0x69F JUMP JUMPDEST PUSH1 0x0 DUP1 CALLER PUSH20 0xFFFFFFFFFFFFFFFFFFFFFFFFFFFFFFFFFFFFFFFF AND PUSH20 0xFFFFFFFFFFFFFFFFFFFFFFFFFFFFFFFFFFFFFFFF AND DUP2 MSTORE PUSH1 0x20 ADD SWAP1 DUP2 MSTORE PUSH1 0x20 ADD PUSH1 0x0 KECCAK256 DUP2 SWAP1 SSTORE POP DUP2 PUSH1 0x0 DUP1 DUP6 PUSH20 0xFFFFFFFFFFFFFFFFFFFFFFFFFFFFFFFFFFFFFFFF AND PUSH20 0xFFFFFFFFFFFFFFFFFFFFFFFFFFFFFFFFFFFFFFFF AND DUP2 MSTORE PUSH1 0x20 ADD SWAP1 DUP2 MSTORE PUSH1 0x20 ADD PUSH1 0x0 KECCAK256 SLOAD PUSH2 0x3EB SWAP2 SWAP1 PUSH2 0x649 JUMP JUMPDEST PUSH1 0x0 DUP1 DUP6 PUSH20 0xFFFFFFFFFFFFFFFFFFFFFFFFFFFFFFFFFFFFFFFF AND PUSH20 0xFFFFFFFFFFFFFFFFFFFFFFFFFFFFFFFFFFFFFFFF AND DUP2 MSTORE PUSH1 0x20 ADD SWAP1 DUP2 MSTORE PUSH1 0x20 ADD PUSH1 0x0 KECCAK256 DUP2 SWAP1 SSTORE POP DUP3 PUSH20 0xFFFFFFFFFFFFFFFFFFFFFFFFFFFFFFFFFFFFFFFF AND CALLER PUSH20 0xFFFFFFFFFFFFFFFFFFFFFFFFFFFFFFFFFFFFFFFF AND PUSH32 0xDDF252AD1BE2C89B69C2B068FC378DAA952BA7F163C4A11628F55A4DF523B3EF DUP5 PUSH1 0x40 MLOAD PUSH2 0x48A SWAP2 SWAP1 PUSH2 0x5F7 JUMP JUMPDEST PUSH1 0x40 MLOAD DUP1 SWAP2 SUB SWAP1 LOG3 PUSH1 0x1 SWAP1 POP SWAP3 SWAP2 POP POP JUMP JUMPDEST PUSH1 0x0 DUP2 CALLDATALOAD SWAP1 POP PUSH2 0x4AB DUP2 PUSH2 0x79B JUMP JUMPDEST SWAP3 SWAP2 POP POP JUMP JUMPDEST PUSH1 0x0 DUP2 CALLDATALOAD SWAP1 POP PUSH2 0x4C0 DUP2 PUSH2 0x7B2 JUMP JUMPDEST SWAP3 SWAP2 POP POP JUMP JUMPDEST PUSH1 0x0 PUSH1 0x20 DUP3 DUP5 SUB SLT ISZERO PUSH2 0x4D8 JUMPI PUSH1 0x0 DUP1 REVERT JUMPDEST PUSH1 0x0 PUSH2 0x4E6 DUP5 DUP3 DUP6 ADD PUSH2 0x49C JUMP JUMPDEST SWAP2 POP POP SWAP3 SWAP2 POP POP JUMP JUMPDEST PUSH1 0x0 DUP1 PUSH1 0x40 DUP4 DUP6 SUB SLT ISZERO PUSH2 0x502 JUMPI PUSH1 0x0 DUP1 REVERT JUMPDEST PUSH1 0x0 PUSH2 0x510 DUP6 DUP3 DUP7 ADD PUSH2 0x49C JUMP JUMPDEST SWAP3 POP POP PUSH1 0x20 PUSH2 0x521 DUP6 DUP3 DUP7 ADD PUSH2 0x4B1 JUMP JUMPDEST SWAP2 POP POP SWAP3 POP SWAP3 SWAP1 POP JUMP JUMPDEST PUSH1 0x0 PUSH1 0x20 DUP3 DUP5 SUB SLT ISZERO PUSH2 0x53D JUMPI PUSH1 0x0 DUP1 REVERT JUMPDEST PUSH1 0x0 PUSH2 0x54B DUP5 DUP3 DUP6 ADD PUSH2 0x4B1 JUMP JUMPDEST SWAP2 POP POP SWAP3 SWAP2 POP POP JUMP JUMPDEST PUSH2 0x55D DUP2 PUSH2 0x6E5 JUMP JUMPDEST DUP3 MSTORE POP POP JUMP JUMPDEST PUSH1 0x0 PUSH2 0x56E DUP3 PUSH2 0x62D JUMP JUMPDEST PUSH2 0x578 DUP2 DUP6 PUSH2 0x638 JUMP JUMPDEST SWAP4 POP PUSH2 0x588 DUP2 DUP6 PUSH1 0x20 DUP7 ADD PUSH2 0x728 JUMP JUMPDEST PUSH2 0x591 DUP2 PUSH2 0x78A JUMP JUMPDEST DUP5 ADD SWAP2 POP POP SWAP3 SWAP2 POP POP JUMP JUMPDEST PUSH2 0x5A5 DUP2 PUSH2 0x711 JUMP JUMPDEST DUP3 MSTORE POP POP JUMP JUMPDEST PUSH2 0x5B4 DUP2 PUSH2 0x71B JUMP JUMPDEST DUP3 MSTORE POP POP JUMP JUMPDEST PUSH1 0x0 PUSH1 0x20 DUP3 ADD SWAP1 POP PUSH2 0x5CF PUSH1 0x0 DUP4 ADD DUP5 PUSH2 0x554 JUMP JUMPDEST SWAP3 SWAP2 POP POP JUMP JUMPDEST PUSH1 0x0 PUSH1 0x20 DUP3 ADD SWAP1 POP DUP2 DUP2 SUB PUSH1 0x0 DUP4 ADD MSTORE PUSH2 0x5EF DUP2 DUP5 PUSH2 0x563 JUMP JUMPDEST SWAP1 POP SWAP3 SWAP2 POP POP JUMP JUMPDEST PUSH1 0x0 PUSH1 0x20 DUP3 ADD SWAP1 POP PUSH2 0x60C PUSH1 0x0 DUP4 ADD DUP5 PUSH2 0x59C JUMP JUMPDEST SWAP3 SWAP2 POP POP JUMP JUMPDEST PUSH1 0x0 PUSH1 0x20 DUP3 ADD SWAP1 POP PUSH2 0x627 PUSH1 0x0 DUP4 ADD DUP5 PUSH2 0x5AB JUMP JUMPDEST SWAP3 SWAP2 POP POP JUMP JUMPDEST PUSH1 0x0 DUP2 MLOAD SWAP1 POP SWAP2 SWAP1 POP JUMP JUMPDEST PUSH1 0x0 DUP3 DUP3 MSTORE PUSH1 0x20 DUP3 ADD SWAP1 POP SWAP3 SWAP2 POP POP JUMP JUMPDEST PUSH1 0x0 PUSH2 0x654 DUP3 PUSH2 0x711 JUMP JUMPDEST SWAP2 POP PUSH2 0x65F DUP4 PUSH2 0x711 JUMP JUMPDEST SWAP3 POP DUP3 PUSH32 0xFFFFFFFFFFFFFFFFFFFFFFFFFFFFFFFFFFFFFFFFFFFFFFFFFFFFFFFFFFFFFFFF SUB DUP3 GT ISZERO PUSH2 0x694 JUMPI PUSH2 0x693 PUSH2 0x75B JUMP JUMPDEST JUMPDEST DUP3 DUP3 ADD SWAP1 POP SWAP3 SWAP2 POP POP JUMP JUMPDEST PUSH1 0x0 PUSH2 0x6AA DUP3 PUSH2 0x711 JUMP JUMPDEST SWAP2 POP PUSH2 0x6B5 DUP4 PUSH2 0x711 JUMP JUMPDEST SWAP3 POP DUP3 DUP3 LT ISZERO PUSH2 0x6C8 JUMPI PUSH2 0x6C7 PUSH2 0x75B JUMP JUMPDEST JUMPDEST DUP3 DUP3 SUB SWAP1 POP SWAP3 SWAP2 POP POP JUMP JUMPDEST PUSH1 0x0 PUSH2 0x6DE DUP3 PUSH2 0x6F1 JUMP JUMPDEST SWAP1 POP SWAP2 SWAP1 POP JUMP JUMPDEST PUSH1 0x0 DUP2 ISZERO ISZERO SWAP1 POP SWAP2 SWAP1 POP JUMP JUMPDEST PUSH1 0x0 PUSH20 0xFFFFFFFFFFFFFFFFFFFFFFFFFFFFFFFFFFFFFFFF DUP3 AND SWAP1 POP SWAP2 SWAP1 POP JUMP JUMPDEST PUSH1 0x0 DUP2 SWAP1 POP SWAP2 SWAP1 POP JUMP JUMPDEST PUSH1 0x0 PUSH1 0xFF DUP3 AND SWAP1 POP SWAP2 SWAP1 POP JUMP JUMPDEST PUSH1 0x0 JUMPDEST DUP4 DUP2 LT ISZERO PUSH2 0x746 JUMPI DUP1 DUP3 ADD MLOAD DUP2 DUP5 ADD MSTORE PUSH1 0x20 DUP2 ADD SWAP1 POP PUSH2 0x72B JUMP JUMPDEST DUP4 DUP2 GT ISZERO PUSH2 0x755 JUMPI PUSH1 0x0 DUP5 DUP5 ADD MSTORE JUMPDEST POP POP POP POP JUMP JUMPDEST PUSH32 0x4E487B7100000000000000000000000000000000000000000000000000000000 PUSH1 0x0 MSTORE PUSH1 0x11 PUSH1 0x4 MSTORE PUSH1 0x24 PUSH1 0x0 REVERT JUMPDEST PUSH1 0x0 PUSH1 0x1F NOT PUSH1 0x1F DUP4 ADD AND SWAP1 POP SWAP2 SWAP1 POP JUMP JUMPDEST PUSH2 0x7A4 DUP2 PUSH2 0x6D3 JUMP JUMPDEST DUP2 EQ PUSH2 0x7AF JUMPI PUSH1 0x0 DUP1 REVERT JUMPDEST POP JUMP JUMPDEST PUSH2 0x7BB DUP2 PUSH2 0x711 JUMP JUMPDEST DUP2 EQ PUSH2 0x7C6 JUMPI PUSH1 0x0 DUP1 REVERT JUMPDEST POP JUMP INVALID LOG2 PUSH5 0x6970667358 0x22 SLT KECCAK256 0x1E 0xDB SWAP13 PUSH23 0x46E08C7147AAB8398258FB3B3CC71B31F77720AAAFF67A 0xB3 0xB0 SWAP16 0xB9 SWAP10 PUSH5 0x736F6C6343 STOP ADDMOD SUB STOP CALLER "
				},
				"gasEstimates": {
					"creation": {
						"codeDepositCost": "409400",
						"executionCost": "infinite",
						"totalCost": "infinite"
					},
					"external": {
						"balanceOf(address)": "1541",
						"decimals()": "380",
						"mint(uint256)": "infinite",
						"name()": "infinite",
						"symbol()": "infinite",
						"totalSupply()": "1160",
						"transfer(address,uint256)": "infinite"
					}
				},
				"methodIdentifiers": {
					"balanceOf(address)": "70a08231",
					"decimals()": "313ce567",
					"mint(uint256)": "a0712d68",
					"name()": "06fdde03",
					"symbol()": "95d89b41",
					"totalSupply()": "18160ddd",
					"transfer(address,uint256)": "a9059cbb"
				}
			},
			"storageLayout": {
				"storage": [
					{
						"astId": 46,
						"contract": "token.sol:SampleToken",
						"label": "balances",
						"offset": 0,
						"slot": "0",
						"type": "t_mapping(t_address,t_uint256)"
					},
					{
						"astId": 48,
						"contract": "token.sol:SampleToken",
						"label": "totalSupply_",
						"offset": 0,
						"slot": "1",
						"type": "t_uint256"
					}
				],
				"types": {
					"t_address": {
						"encoding": "inplace",
						"label": "address",
						"numberOfBytes": "20"
					},
					"t_mapping(t_address,t_uint256)": {
						"encoding": "mapping",
						"key": "t_address",
						"label": "mapping(address => uint256)",
						"numberOfBytes": "32",
						"value": "t_uint256"
					},
					"t_uint256": {
						"encoding": "inplace",
						"label": "uint256",
						"numberOfBytes": "32"
					}
				}
			},
			"userdoc": {
				"kind": "user",
				"methods": {},
				"version": 1
			}
		}
	}
}